{
  "_format": "hh-sol-artifact-1",
  "contractName": "Faucet",
  "sourceName": "contracts/Faucet.sol",
  "abi": [
    {
      "inputs": [
        {
          "internalType": "uint256",
          "name": "remainingTime",
          "type": "uint256"
        }
      ],
      "name": "CooldownNotExpired",
      "type": "error"
    },
    {
      "inputs": [],
      "name": "FaucetDrainFailed",
      "type": "error"
    },
    {
      "inputs": [],
      "name": "InsufficientFaucetBalance",
      "type": "error"
    },
    {
      "inputs": [],
      "name": "InvalidReceiver",
      "type": "error"
    },
    {
      "anonymous": false,
      "inputs": [
        {
          "indexed": true,
          "internalType": "address",
          "name": "recipient",
          "type": "address"
        },
        {
          "indexed": false,
          "internalType": "uint256",
          "name": "amount",
          "type": "uint256"
        },
        {
          "indexed": false,
          "internalType": "uint256",
          "name": "timestamp",
          "type": "uint256"
        }
      ],
      "name": "FaucetClaimed",
      "type": "event"
    },
    {
      "inputs": [],
      "name": "COOLDOWN_TIME",
      "outputs": [
        {
          "internalType": "uint256",
          "name": "",
          "type": "uint256"
        }
      ],
      "stateMutability": "view",
      "type": "function"
    },
    {
      "inputs": [],
      "name": "FAUCET_AMOUNT",
      "outputs": [
        {
          "internalType": "uint256",
          "name": "",
          "type": "uint256"
        }
      ],
      "stateMutability": "view",
      "type": "function"
    },
    {
      "inputs": [
        {
          "internalType": "address",
          "name": "receiver",
          "type": "address"
        }
      ],
      "name": "claimTokens",
      "outputs": [],
      "stateMutability": "nonpayable",
      "type": "function"
    },
    {
      "inputs": [
        {
          "internalType": "address",
          "name": "user",
          "type": "address"
        }
      ],
      "name": "getRemainingCooldown",
      "outputs": [
        {
          "internalType": "uint256",
          "name": "",
          "type": "uint256"
        }
      ],
      "stateMutability": "view",
      "type": "function"
    },
    {
      "inputs": [
        {
          "internalType": "address",
          "name": "",
          "type": "address"
        }
      ],
      "name": "lastFaucetTime",
      "outputs": [
        {
          "internalType": "uint256",
          "name": "",
          "type": "uint256"
        }
      ],
      "stateMutability": "view",
      "type": "function"
    },
    {
      "stateMutability": "payable",
      "type": "receive"
    }
  ],
  "bytecode": "0x6080604052348015600f57600080fd5b5061071b8061001f6000396000f3fe60806040526004361061004e5760003560e01c8063766976401461005a5780637bc1f6cc146100855780637d263245146100c2578063df8de3e7146100ed578063e6f3e0041461011657610055565b3661005557005b600080fd5b34801561006657600080fd5b5061006f610153565b60405161007c9190610534565b60405180910390f35b34801561009157600080fd5b506100ac60048036038101906100a791906105b2565b61015f565b6040516100b99190610534565b60405180910390f35b3480156100ce57600080fd5b506100d7610177565b6040516100e49190610534565b60405180910390f35b3480156100f957600080fd5b50610114600480360381019061010f91906105b2565b61017e565b005b34801561012257600080fd5b5061013d600480360381019061013891906105b2565b61045d565b60405161014a9190610534565b60405180910390f35b670de0b6b3a764000081565b60006020528060005260406000206000915090505481565b6201518081565b600073ffffffffffffffffffffffffffffffffffffffff168173ffffffffffffffffffffffffffffffffffffffff16036101e4576040517f1e4ec46b00000000000000000000000000000000000000000000000000000000815260040160405180910390fd5b620151806000808373ffffffffffffffffffffffffffffffffffffffff1673ffffffffffffffffffffffffffffffffffffffff16815260200190815260200160002054610231919061060e565b4210156102d157600042620151806000808573ffffffffffffffffffffffffffffffffffffffff1673ffffffffffffffffffffffffffffffffffffffff16815260200190815260200160002054610288919061060e565b6102929190610642565b9050806040517f4263cbc30000000000000000000000000000000000000000000000000000000081526004016102c89190610534565b60405180910390fd5b670de0b6b3a7640000471015610313576040517f25bab55300000000000000000000000000000000000000000000000000000000815260040160405180910390fd5b426000808373ffffffffffffffffffffffffffffffffffffffff1673ffffffffffffffffffffffffffffffffffffffff1681526020019081526020016000208190555060008173ffffffffffffffffffffffffffffffffffffffff16670de0b6b3a7640000604051610384906106a7565b60006040518083038185875af1925050503d80600081146103c1576040519150601f19603f3d011682016040523d82523d6000602084013e6103c6565b606091505b5050905080610401576040517f70ccbe9600000000000000000000000000000000000000000000000000000000815260040160405180910390fd5b8173ffffffffffffffffffffffffffffffffffffffff167fa19a7d2b5bf6a987a66e0eac8a6eb2dbd34ae6a43285849af788b224268ec022670de0b6b3a7640000426040516104519291906106bc565b60405180910390a25050565b6000620151806000808473ffffffffffffffffffffffffffffffffffffffff1673ffffffffffffffffffffffffffffffffffffffff168152602001908152602001600020546104ac919061060e565b42106104bb5760009050610516565b42620151806000808573ffffffffffffffffffffffffffffffffffffffff1673ffffffffffffffffffffffffffffffffffffffff16815260200190815260200160002054610509919061060e565b6105139190610642565b90505b919050565b6000819050919050565b61052e8161051b565b82525050565b60006020820190506105496000830184610525565b92915050565b600080fd5b600073ffffffffffffffffffffffffffffffffffffffff82169050919050565b600061057f82610554565b9050919050565b61058f81610574565b811461059a57600080fd5b50565b6000813590506105ac81610586565b92915050565b6000602082840312156105c8576105c761054f565b5b60006105d68482850161059d565b91505092915050565b7f4e487b7100000000000000000000000000000000000000000000000000000000600052601160045260246000fd5b60006106198261051b565b91506106248361051b565b925082820190508082111561063c5761063b6105df565b5b92915050565b600061064d8261051b565b91506106588361051b565b92508282039050818111156106705761066f6105df565b5b92915050565b600081905092915050565b50565b6000610691600083610676565b915061069c82610681565b600082019050919050565b60006106b282610684565b9150819050919050565b60006040820190506106d16000830185610525565b6106de6020830184610525565b939250505056fea264697066735822122033d604fb8efbf9ed0d1ce7b7ea0464c6c831a345de9a1f681d8fa362c96ab3ad64736f6c63430008190033",
  "linkReferences": {},
  "deployedLinkReferences": {}
}