{
  "_format": "hh-sol-artifact-1",
  "contractName": "TokenFactory",
  "sourceName": "contracts/TokenFactory.sol",
  "abi": [
    {
      "inputs": [
        {
          "internalType": "address",
          "name": "_nativeLiquidityPoolAddress",
          "type": "address"
        }
      ],
      "stateMutability": "nonpayable",
      "type": "constructor"
    },
    {
      "anonymous": false,
      "inputs": [
        {
          "indexed": true,
          "internalType": "address",
          "name": "user",
          "type": "address"
        },
        {
          "indexed": true,
          "internalType": "address",
          "name": "tokenAddress",
          "type": "address"
        },
        {
          "indexed": false,
          "internalType": "uint256",
          "name": "amount",
          "type": "uint256"
        }
      ],
      "name": "RewardClaimed",
      "type": "event"
    },
    {
      "inputs": [
        {
          "internalType": "address",
          "name": "",
          "type": "address"
        }
      ],
      "name": "addressToMemeTokenMapping",
      "outputs": [
        {
          "internalType": "string",
          "name": "name",
          "type": "string"
        },
        {
          "internalType": "string",
          "name": "symbol",
          "type": "string"
        },
        {
          "internalType": "string",
          "name": "description",
          "type": "string"
        },
        {
          "internalType": "string",
          "name": "tokenImageUrl",
          "type": "string"
        },
        {
          "internalType": "uint256",
          "name": "fundingRaised",
          "type": "uint256"
        },
        {
          "internalType": "address",
          "name": "tokenAddress",
          "type": "address"
        },
        {
          "internalType": "address",
          "name": "creatorAddress",
          "type": "address"
        },
        {
          "internalType": "bool",
          "name": "isLiquidityCreated",
          "type": "bool"
        },
        {
          "internalType": "uint256",
          "name": "holders",
          "type": "uint256"
        }
      ],
      "stateMutability": "view",
      "type": "function"
    },
    {
      "inputs": [],
      "name": "bondingCurvePrecompile",
      "outputs": [
        {
          "internalType": "contract IBondingCurvePrecompile",
          "name": "",
          "type": "address"
        }
      ],
      "stateMutability": "view",
      "type": "function"
    },
    {
      "inputs": [
        {
          "internalType": "address",
          "name": "memeTokenAddress",
          "type": "address"
        },
        {
          "internalType": "uint256",
          "name": "tokenQty",
          "type": "uint256"
        }
      ],
      "name": "buyMemeToken",
      "outputs": [
        {
          "internalType": "uint256",
          "name": "",
          "type": "uint256"
        }
      ],
      "stateMutability": "payable",
      "type": "function"
    },
    {
      "inputs": [
        {
          "internalType": "address",
          "name": "memeTokenAddress",
          "type": "address"
        },
        {
          "internalType": "address",
          "name": "user",
          "type": "address"
        }
      ],
      "name": "calculateReward",
      "outputs": [
        {
          "internalType": "uint256",
          "name": "",
          "type": "uint256"
        }
      ],
      "stateMutability": "view",
      "type": "function"
    },
    {
      "inputs": [
        {
          "internalType": "address",
          "name": "memeTokenAddress",
          "type": "address"
        }
      ],
      "name": "claimReward",
      "outputs": [],
      "stateMutability": "nonpayable",
      "type": "function"
    },
    {
      "inputs": [
        {
          "internalType": "string",
          "name": "name",
          "type": "string"
        },
        {
          "internalType": "string",
          "name": "symbol",
          "type": "string"
        },
        {
          "internalType": "string",
          "name": "imageUrl",
          "type": "string"
        },
        {
          "internalType": "string",
          "name": "description",
          "type": "string"
        }
      ],
      "name": "createMemeToken",
      "outputs": [
        {
          "internalType": "address",
          "name": "",
          "type": "address"
        }
      ],
      "stateMutability": "nonpayable",
      "type": "function"
    },
    {
      "inputs": [],
      "name": "getAllMemeTokens",
      "outputs": [
        {
          "components": [
            {
              "internalType": "string",
              "name": "name",
              "type": "string"
            },
            {
              "internalType": "string",
              "name": "symbol",
              "type": "string"
            },
            {
              "internalType": "string",
              "name": "description",
              "type": "string"
            },
            {
              "internalType": "string",
              "name": "tokenImageUrl",
              "type": "string"
            },
            {
              "internalType": "uint256",
              "name": "fundingRaised",
              "type": "uint256"
            },
            {
              "internalType": "address",
              "name": "tokenAddress",
              "type": "address"
            },
            {
              "internalType": "address",
              "name": "creatorAddress",
              "type": "address"
            },
            {
              "internalType": "bool",
              "name": "isLiquidityCreated",
              "type": "bool"
            },
            {
              "internalType": "uint256",
              "name": "holders",
              "type": "uint256"
            }
          ],
          "internalType": "struct TokenFactory.memeToken[]",
          "name": "",
          "type": "tuple[]"
        }
      ],
      "stateMutability": "view",
      "type": "function"
    },
    {
      "inputs": [
        {
          "internalType": "uint256",
          "name": "currentSupply",
          "type": "uint256"
        },
        {
          "internalType": "uint256",
          "name": "tokensToBuy",
          "type": "uint256"
        }
      ],
      "name": "getCost",
      "outputs": [
        {
          "internalType": "uint256",
          "name": "",
          "type": "uint256"
        }
      ],
      "stateMutability": "nonpayable",
      "type": "function"
    },
    {
      "inputs": [
        {
          "internalType": "uint256",
          "name": "index",
          "type": "uint256"
        }
      ],
      "name": "getMemeTokenByIndex",
      "outputs": [
        {
          "internalType": "string",
          "name": "",
          "type": "string"
        },
        {
          "internalType": "string",
          "name": "",
          "type": "string"
        },
        {
          "internalType": "string",
          "name": "",
          "type": "string"
        },
        {
          "internalType": "string",
          "name": "",
          "type": "string"
        },
        {
          "internalType": "uint256",
          "name": "",
          "type": "uint256"
        },
        {
          "internalType": "address",
          "name": "",
          "type": "address"
        },
        {
          "internalType": "address",
          "name": "",
          "type": "address"
        },
        {
          "internalType": "bool",
          "name": "",
          "type": "bool"
        },
        {
          "internalType": "uint256",
          "name": "",
          "type": "uint256"
        }
      ],
      "stateMutability": "view",
      "type": "function"
    },
    {
      "inputs": [],
      "name": "getMemeTokenCount",
      "outputs": [
        {
          "internalType": "uint256",
          "name": "",
          "type": "uint256"
        }
      ],
      "stateMutability": "view",
      "type": "function"
    },
    {
      "inputs": [
        {
          "internalType": "address",
          "name": "memeTokenAddress",
          "type": "address"
        },
        {
          "internalType": "address",
          "name": "user",
          "type": "address"
        }
      ],
      "name": "getUserTokenContribution",
      "outputs": [
        {
          "internalType": "uint256",
          "name": "",
          "type": "uint256"
        }
      ],
      "stateMutability": "view",
      "type": "function"
    },
    {
      "inputs": [
        {
          "internalType": "address",
          "name": "",
          "type": "address"
        },
        {
          "internalType": "address",
          "name": "",
          "type": "address"
        }
      ],
      "name": "hasClaimedReward",
      "outputs": [
        {
          "internalType": "bool",
          "name": "",
          "type": "bool"
        }
      ],
      "stateMutability": "view",
      "type": "function"
    },
    {
      "inputs": [
        {
          "internalType": "address",
          "name": "memeTokenAddress",
          "type": "address"
        },
        {
          "internalType": "address",
          "name": "user",
          "type": "address"
        }
      ],
      "name": "hasUserClaimedReward",
      "outputs": [
        {
          "internalType": "bool",
          "name": "",
          "type": "bool"
        }
      ],
      "stateMutability": "view",
      "type": "function"
    },
    {
      "inputs": [
        {
          "internalType": "uint256",
          "name": "",
          "type": "uint256"
        }
      ],
      "name": "memeTokenAddresses",
      "outputs": [
        {
          "internalType": "address",
          "name": "",
          "type": "address"
        }
      ],
      "stateMutability": "view",
      "type": "function"
    },
    {
      "inputs": [],
      "name": "nativeLiquidityPool",
      "outputs": [
        {
          "internalType": "contract NativeLiquidityPool",
          "name": "",
          "type": "address"
        }
      ],
      "stateMutability": "view",
      "type": "function"
    },
    {
      "inputs": [
        {
          "internalType": "address",
          "name": "memeTokenAddress",
          "type": "address"
        },
        {
          "internalType": "uint256",
          "name": "tokenQty",
          "type": "uint256"
        }
      ],
      "name": "sellMemeToken",
      "outputs": [
        {
          "internalType": "uint256",
          "name": "",
          "type": "uint256"
        }
      ],
      "stateMutability": "nonpayable",
      "type": "function"
    },
    {
      "inputs": [
        {
          "internalType": "address",
          "name": "",
          "type": "address"
        },
        {
          "internalType": "address",
          "name": "",
          "type": "address"
        }
      ],
      "name": "userTokenContributions",
      "outputs": [
        {
          "internalType": "uint256",
          "name": "",
          "type": "uint256"
        }
      ],
      "stateMutability": "view",
      "type": "function"
    }
  ],
  "bytecode": "0x6080604052730300000000000000000000000000000000000002600560006101000a81548173ffffffffffffffffffffffffffffffffffffffff021916908373ffffffffffffffffffffffffffffffffffffffff1602179055503480156200006657600080fd5b5060405162005dd238038062005dd283398181016040528101906200008c91906200013e565b80600460006101000a81548173ffffffffffffffffffffffffffffffffffffffff021916908373ffffffffffffffffffffffffffffffffffffffff1602179055505062000170565b600080fd5b600073ffffffffffffffffffffffffffffffffffffffff82169050919050565b60006200010682620000d9565b9050919050565b6200011881620000f9565b81146200012457600080fd5b50565b60008151905062000138816200010d565b92915050565b600060208284031215620001575762000156620000d4565b5b6000620001678482850162000127565b91505092915050565b615c5280620001806000396000f3fe608060405260043610620001165760003560e01c8063a7c18c1411620000a3578063d279c191116200006d578063d279c191146200041f578063dd5988cd146200044d578063de887eb11462000491578063e27dfaa414620004c1578063e823bfd514620005055762000116565b8063a7c18c141462000337578063af62fb5e146200037b578063bcfeed9a14620003bf578063c77031b414620003ef5762000116565b806347fb20fd11620000e557806347fb20fd146200021f57806360484ef914620002635780637ca44fcf14620002af5780639aaa546c14620002f35762000116565b8063036e8cab146200011b578063075bb17d146200014b578063130da960146200018f57806313cb5ad614620001db575b600080fd5b3480156200012857600080fd5b50620001336200053b565b60405162000142919062002a13565b60405180910390f35b3480156200015857600080fd5b5062000177600480360381019062000171919062002ba6565b62000561565b60405162000186919062002cb9565b60405180910390f35b3480156200019c57600080fd5b50620001bb6004803603810190620001b5919062002d07565b6200081a565b604051620001d29998979695949392919062002dfa565b60405180910390f35b348015620001e857600080fd5b5062000207600480360381019062000201919062002ee6565b62000af5565b60405162000216919062002cb9565b60405180910390f35b3480156200022c57600080fd5b506200024b600480360381019062000245919062002f18565b62000b35565b6040516200025a919062002f5f565b60405180910390f35b3480156200027057600080fd5b506200028f600480360381019062000289919062002ee6565b62000b5a565b604051620002a69998979695949392919062002dfa565b60405180910390f35b348015620002bc57600080fd5b50620002db6004803603810190620002d5919062002f18565b62000fd1565b604051620002ea919062002f5f565b60405180910390f35b3480156200030057600080fd5b506200031f600480360381019062000319919062002f18565b620012dd565b6040516200032e919062002f7c565b60405180910390f35b3480156200034457600080fd5b506200036360048036038101906200035d919062002f99565b6200130c565b60405162000372919062002f5f565b60405180910390f35b3480156200038857600080fd5b50620003a76004803603810190620003a1919062002f18565b620013b9565b604051620003b6919062002f5f565b60405180910390f35b348015620003cc57600080fd5b50620003d762001440565b604051620003e6919062003221565b60405180910390f35b348015620003fc57600080fd5b5062000407620018bb565b60405162000416919062002f5f565b60405180910390f35b3480156200042c57600080fd5b506200044b600480360381019062000445919062002d07565b620018c7565b005b3480156200045a57600080fd5b5062000479600480360381019062000473919062003245565b62001cd3565b60405162000488919062002f5f565b60405180910390f35b3480156200049e57600080fd5b50620004a9620021ad565b604051620004b89190620032b1565b60405180910390f35b348015620004ce57600080fd5b50620004ed6004803603810190620004e7919062002f18565b620021d3565b604051620004fc919062002f7c565b60405180910390f35b6200052360048036038101906200051d919062003245565b62002267565b60405162000532919062002f5f565b60405180910390f35b600460009054906101000a900473ffffffffffffffffffffffffffffffffffffffff1681565b600080858560c86040516200057690620028f4565b6200058493929190620032ce565b604051809103906000f080158015620005a1573d6000803e3d6000fd5b50905060008190506000604051806101200160405280898152602001888152602001868152602001878152602001600081526020018373ffffffffffffffffffffffffffffffffffffffff1681526020013373ffffffffffffffffffffffffffffffffffffffff168152602001600015158152602001600081525090506000829080600181540180825580915050600190039060005260206000200160009091909190916101000a81548173ffffffffffffffffffffffffffffffffffffffff021916908373ffffffffffffffffffffffffffffffffffffffff16021790555080600160008473ffffffffffffffffffffffffffffffffffffffff1673ffffffffffffffffffffffffffffffffffffffff1681526020019081526020016000206000820151816000019081620006d8919062003545565b506020820151816001019081620006f0919062003545565b50604082015181600201908162000708919062003545565b50606082015181600301908162000720919062003545565b506080820151816004015560a08201518160050160006101000a81548173ffffffffffffffffffffffffffffffffffffffff021916908373ffffffffffffffffffffffffffffffffffffffff16021790555060c08201518160060160006101000a81548173ffffffffffffffffffffffffffffffffffffffff021916908373ffffffffffffffffffffffffffffffffffffffff16021790555060e08201518160060160146101000a81548160ff02191690831515021790555061010082015181600701559050506200080c60405180606001604052806022815260200162005bfb60229139836200267c565b819350505050949350505050565b60016020528060005260406000206000915090508060000180546200083f9062003348565b80601f01602080910402602001604051908101604052809291908181526020018280546200086d9062003348565b8015620008be5780601f106200089257610100808354040283529160200191620008be565b820191906000526020600020905b815481529060010190602001808311620008a057829003601f168201915b505050505090806001018054620008d59062003348565b80601f0160208091040260200160405190810160405280929190818152602001828054620009039062003348565b8015620009545780601f10620009285761010080835404028352916020019162000954565b820191906000526020600020905b8154815290600101906020018083116200093657829003601f168201915b5050505050908060020180546200096b9062003348565b80601f0160208091040260200160405190810160405280929190818152602001828054620009999062003348565b8015620009ea5780601f10620009be57610100808354040283529160200191620009ea565b820191906000526020600020905b815481529060010190602001808311620009cc57829003601f168201915b50505050509080600301805462000a019062003348565b80601f016020809104026020016040519081016040528092919081815260200182805462000a2f9062003348565b801562000a805780601f1062000a545761010080835404028352916020019162000a80565b820191906000526020600020905b81548152906001019060200180831162000a6257829003601f168201915b5050505050908060040154908060050160009054906101000a900473ffffffffffffffffffffffffffffffffffffffff16908060060160009054906101000a900473ffffffffffffffffffffffffffffffffffffffff16908060060160149054906101000a900460ff16908060070154905089565b6000818154811062000b0657600080fd5b906000526020600020016000915054906101000a900473ffffffffffffffffffffffffffffffffffffffff1681565b6002602052816000526040600020602052806000526040600020600091509150505481565b606080606080600080600080600080805490508a1062000bb1576040517f08c379a000000000000000000000000000000000000000000000000000000000815260040162000ba8906200367c565b60405180910390fd5b600060016000808d8154811062000bcd5762000bcc6200369e565b5b9060005260206000200160009054906101000a900473ffffffffffffffffffffffffffffffffffffffff1673ffffffffffffffffffffffffffffffffffffffff1673ffffffffffffffffffffffffffffffffffffffff1681526020019081526020016000206040518061012001604052908160008201805462000c509062003348565b80601f016020809104026020016040519081016040528092919081815260200182805462000c7e9062003348565b801562000ccf5780601f1062000ca35761010080835404028352916020019162000ccf565b820191906000526020600020905b81548152906001019060200180831162000cb157829003601f168201915b5050505050815260200160018201805462000cea9062003348565b80601f016020809104026020016040519081016040528092919081815260200182805462000d189062003348565b801562000d695780601f1062000d3d5761010080835404028352916020019162000d69565b820191906000526020600020905b81548152906001019060200180831162000d4b57829003601f168201915b5050505050815260200160028201805462000d849062003348565b80601f016020809104026020016040519081016040528092919081815260200182805462000db29062003348565b801562000e035780601f1062000dd75761010080835404028352916020019162000e03565b820191906000526020600020905b81548152906001019060200180831162000de557829003601f168201915b5050505050815260200160038201805462000e1e9062003348565b80601f016020809104026020016040519081016040528092919081815260200182805462000e4c9062003348565b801562000e9d5780601f1062000e715761010080835404028352916020019162000e9d565b820191906000526020600020905b81548152906001019060200180831162000e7f57829003601f168201915b50505050508152602001600482015481526020016005820160009054906101000a900473ffffffffffffffffffffffffffffffffffffffff1673ffffffffffffffffffffffffffffffffffffffff1673ffffffffffffffffffffffffffffffffffffffff1681526020016006820160009054906101000a900473ffffffffffffffffffffffffffffffffffffffff1673ffffffffffffffffffffffffffffffffffffffff1673ffffffffffffffffffffffffffffffffffffffff1681526020016006820160149054906101000a900460ff161515151581526020016007820154815250509050806000015181602001518260400151836060015184608001518560a001518660c001518760e00151886101000151995099509950995099509950995099509950509193959799909294969850565b6000600160008473ffffffffffffffffffffffffffffffffffffffff1673ffffffffffffffffffffffffffffffffffffffff16815260200190815260200160002060060160149054906101000a900460ff161580620010b65750600360008473ffffffffffffffffffffffffffffffffffffffff1673ffffffffffffffffffffffffffffffffffffffff16815260200190815260200160002060008373ffffffffffffffffffffffffffffffffffffffff1673ffffffffffffffffffffffffffffffffffffffff16815260200190815260200160002060009054906101000a900460ff165b806200113e57506000600260008573ffffffffffffffffffffffffffffffffffffffff1673ffffffffffffffffffffffffffffffffffffffff16815260200190815260200160002060008473ffffffffffffffffffffffffffffffffffffffff1673ffffffffffffffffffffffffffffffffffffffff16815260200190815260200160002054145b156200114e5760009050620012d7565b6000839050600060c88273ffffffffffffffffffffffffffffffffffffffff166318160ddd6040518163ffffffff1660e01b8152600401602060405180830381865afa158015620011a3573d6000803e3d6000fd5b505050506040513d601f19601f82011682018060405250810190620011c99190620036e4565b620011d5919062003745565b90506000600260008773ffffffffffffffffffffffffffffffffffffffff1673ffffffffffffffffffffffffffffffffffffffff16815260200190815260200160002060008673ffffffffffffffffffffffffffffffffffffffff1673ffffffffffffffffffffffffffffffffffffffff16815260200190815260200160002054905060648262001267919062003780565b816003600160008a73ffffffffffffffffffffffffffffffffffffffff1673ffffffffffffffffffffffffffffffffffffffff16815260200190815260200160002060040154620012b9919062003780565b620012c5919062003780565b620012d19190620037fa565b93505050505b92915050565b60036020528160005260406000206020528060005260406000206000915091509054906101000a900460ff1681565b6000600560009054906101000a900473ffffffffffffffffffffffffffffffffffffffff1673ffffffffffffffffffffffffffffffffffffffff1663a7c18c1484846040518363ffffffff1660e01b81526004016200136d92919062003832565b602060405180830381865afa1580156200138b573d6000803e3d6000fd5b505050506040513d601f19601f82011682018060405250810190620013b19190620036e4565b905092915050565b6000600260008473ffffffffffffffffffffffffffffffffffffffff1673ffffffffffffffffffffffffffffffffffffffff16815260200190815260200160002060008373ffffffffffffffffffffffffffffffffffffffff1673ffffffffffffffffffffffffffffffffffffffff16815260200190815260200160002054905092915050565b60606000808054905067ffffffffffffffff81111562001465576200146462002a5f565b5b604051908082528060200260200182016040528015620014a257816020015b6200148e62002902565b815260200190600190039081620014845790505b50905060005b600080549050811015620018b35760016000808381548110620014d057620014cf6200369e565b5b9060005260206000200160009054906101000a900473ffffffffffffffffffffffffffffffffffffffff1673ffffffffffffffffffffffffffffffffffffffff1673ffffffffffffffffffffffffffffffffffffffff16815260200190815260200160002060405180610120016040529081600082018054620015539062003348565b80601f0160208091040260200160405190810160405280929190818152602001828054620015819062003348565b8015620015d25780601f10620015a657610100808354040283529160200191620015d2565b820191906000526020600020905b815481529060010190602001808311620015b457829003601f168201915b50505050508152602001600182018054620015ed9062003348565b80601f01602080910402602001604051908101604052809291908181526020018280546200161b9062003348565b80156200166c5780601f1062001640576101008083540402835291602001916200166c565b820191906000526020600020905b8154815290600101906020018083116200164e57829003601f168201915b50505050508152602001600282018054620016879062003348565b80601f0160208091040260200160405190810160405280929190818152602001828054620016b59062003348565b8015620017065780601f10620016da5761010080835404028352916020019162001706565b820191906000526020600020905b815481529060010190602001808311620016e857829003601f168201915b50505050508152602001600382018054620017219062003348565b80601f01602080910402602001604051908101604052809291908181526020018280546200174f9062003348565b8015620017a05780601f106200177457610100808354040283529160200191620017a0565b820191906000526020600020905b8154815290600101906020018083116200178257829003601f168201915b50505050508152602001600482015481526020016005820160009054906101000a900473ffffffffffffffffffffffffffffffffffffffff1673ffffffffffffffffffffffffffffffffffffffff1673ffffffffffffffffffffffffffffffffffffffff1681526020016006820160009054906101000a900473ffffffffffffffffffffffffffffffffffffffff1673ffffffffffffffffffffffffffffffffffffffff1673ffffffffffffffffffffffffffffffffffffffff1681526020016006820160149054906101000a900460ff161515151581526020016007820154815250508282815181106200189a57620018996200369e565b5b60200260200101819052508080600101915050620014a8565b508091505090565b60008080549050905090565b600160008273ffffffffffffffffffffffffffffffffffffffff1673ffffffffffffffffffffffffffffffffffffffff16815260200190815260200160002060060160149054906101000a900460ff1662001959576040517f08c379a00000000000000000000000000000000000000000000000000000000081526004016200195090620038af565b60405180910390fd5b600360008273ffffffffffffffffffffffffffffffffffffffff1673ffffffffffffffffffffffffffffffffffffffff16815260200190815260200160002060003373ffffffffffffffffffffffffffffffffffffffff1673ffffffffffffffffffffffffffffffffffffffff16815260200190815260200160002060009054906101000a900460ff161562001a26576040517f08c379a000000000000000000000000000000000000000000000000000000000815260040162001a1d9062003921565b60405180910390fd5b6000600260008373ffffffffffffffffffffffffffffffffffffffff1673ffffffffffffffffffffffffffffffffffffffff16815260200190815260200160002060003373ffffffffffffffffffffffffffffffffffffffff1673ffffffffffffffffffffffffffffffffffffffff168152602001908152602001600020541162001ae8576040517f08c379a000000000000000000000000000000000000000000000000000000000815260040162001adf9062003993565b60405180910390fd5b600062001af6823362000fd1565b90506000811162001b3e576040517f08c379a000000000000000000000000000000000000000000000000000000000815260040162001b359062003a05565b60405180910390fd5b6001600360008473ffffffffffffffffffffffffffffffffffffffff1673ffffffffffffffffffffffffffffffffffffffff16815260200190815260200160002060003373ffffffffffffffffffffffffffffffffffffffff1673ffffffffffffffffffffffffffffffffffffffff16815260200190815260200160002060006101000a81548160ff021916908315150217905550600460009054906101000a900473ffffffffffffffffffffffffffffffffffffffff1673ffffffffffffffffffffffffffffffffffffffff166343c605448333846040518463ffffffff1660e01b815260040162001c349392919062003a27565b600060405180830381600087803b15801562001c4f57600080fd5b505af115801562001c64573d6000803e3d6000fd5b505050508173ffffffffffffffffffffffffffffffffffffffff163373ffffffffffffffffffffffffffffffffffffffff167f0aa4d283470c904c551d18bb894d37e17674920f3261a7f854be501e25f421b78360405162001cc7919062002f5f565b60405180910390a35050565b60008073ffffffffffffffffffffffffffffffffffffffff16600160008573ffffffffffffffffffffffffffffffffffffffff1673ffffffffffffffffffffffffffffffffffffffff16815260200190815260200160002060050160009054906101000a900473ffffffffffffffffffffffffffffffffffffffff1673ffffffffffffffffffffffffffffffffffffffff160362001da8576040517f08c379a000000000000000000000000000000000000000000000000000000000815260040162001d9f9062003ab4565b60405180910390fd5b600083905060008173ffffffffffffffffffffffffffffffffffffffff166370a08231336040518263ffffffff1660e01b815260040162001dea919062002cb9565b602060405180830381865afa15801562001e08573d6000803e3d6000fd5b505050506040513d601f19601f8201168201806040525081019062001e2e9190620036e4565b90508381101562001e76576040517f08c379a000000000000000000000000000000000000000000000000000000000815260040162001e6d9062003b26565b60405180910390fd5b60008273ffffffffffffffffffffffffffffffffffffffff166318160ddd6040518163ffffffff1660e01b8152600401602060405180830381865afa15801562001ec4573d6000803e3d6000fd5b505050506040513d601f19601f8201168201806040525081019062001eea9190620036e4565b9050600060c88262001efd919062003745565b9050600062001f0d82886200130c565b905086600260008a73ffffffffffffffffffffffffffffffffffffffff1673ffffffffffffffffffffffffffffffffffffffff16815260200190815260200160002060003373ffffffffffffffffffffffffffffffffffffffff1673ffffffffffffffffffffffffffffffffffffffff16815260200190815260200160002054101562001fd1576040517f08c379a000000000000000000000000000000000000000000000000000000000815260040162001fc89062003bbe565b60405180910390fd5b86600260008a73ffffffffffffffffffffffffffffffffffffffff1673ffffffffffffffffffffffffffffffffffffffff16815260200190815260200160002060003373ffffffffffffffffffffffffffffffffffffffff1673ffffffffffffffffffffffffffffffffffffffff16815260200190815260200160002060008282546200205f919062003745565b925050819055508473ffffffffffffffffffffffffffffffffffffffff1663fcd3533c88336040518363ffffffff1660e01b8152600401620020a392919062003be0565b6020604051808303816000875af1158015620020c3573d6000803e3d6000fd5b505050506040513d601f19601f82011682018060405250810190620020e99190620036e4565b5060003373ffffffffffffffffffffffffffffffffffffffff1682604051620021129062003c42565b60006040518083038185875af1925050503d806000811462002151576040519150601f19603f3d011682016040523d82523d6000602084013e62002156565b606091505b50509050806200219d576040517f08c379a0000000000000000000000000000000000000000000000000000000008152600401620021949062003ca9565b60405180910390fd5b6001965050505050505092915050565b600560009054906101000a900473ffffffffffffffffffffffffffffffffffffffff1681565b6000600360008473ffffffffffffffffffffffffffffffffffffffff1673ffffffffffffffffffffffffffffffffffffffff16815260200190815260200160002060008373ffffffffffffffffffffffffffffffffffffffff1673ffffffffffffffffffffffffffffffffffffffff16815260200190815260200160002060009054906101000a900460ff16905092915050565b60008073ffffffffffffffffffffffffffffffffffffffff16600160008573ffffffffffffffffffffffffffffffffffffffff1673ffffffffffffffffffffffffffffffffffffffff16815260200190815260200160002060050160009054906101000a900473ffffffffffffffffffffffffffffffffffffffff1673ffffffffffffffffffffffffffffffffffffffff16036200233c576040517f08c379a0000000000000000000000000000000000000000000000000000000008152600401620023339062003ab4565b60405180910390fd5b6000600160008573ffffffffffffffffffffffffffffffffffffffff1673ffffffffffffffffffffffffffffffffffffffff1681526020019081526020016000209050600084905060008173ffffffffffffffffffffffffffffffffffffffff166318160ddd6040518163ffffffff1660e01b8152600401602060405180830381865afa158015620023d2573d6000803e3d6000fd5b505050506040513d601f19601f82011682018060405250810190620023f89190620036e4565b90506000816127106200240c919062003745565b90508086111562002454576040517f08c379a00000000000000000000000000000000000000000000000000000000081526004016200244b9062003d1b565b60405180910390fd5b600060c88362002465919062003745565b905060006200247582896200130c565b905080341015620024bd576040517f08c379a0000000000000000000000000000000000000000000000000000000008152600401620024b49062003d8d565b60405180910390fd5b87600260008b73ffffffffffffffffffffffffffffffffffffffff1673ffffffffffffffffffffffffffffffffffffffff16815260200190815260200160002060003373ffffffffffffffffffffffffffffffffffffffff1673ffffffffffffffffffffffffffffffffffffffff16815260200190815260200160002060008282546200254b919062003daf565b925050819055503486600401600082825462002568919062003daf565b9250508190555067016345785d8a00008660040154101580156200259b57508560060160149054906101000a900460ff16155b15620025ca57620025ac896200271c565b60018660060160146101000a81548160ff0219169083151502179055505b6001866007016000828254620025e1919062003daf565b925050819055508473ffffffffffffffffffffffffffffffffffffffff166394bf804d89336040518363ffffffff1660e01b81526004016200262592919062003be0565b6020604051808303816000875af115801562002645573d6000803e3d6000fd5b505050506040513d601f19601f820116820180604052508101906200266b9190620036e4565b506001965050505050505092915050565b6200271882826040516024016200269592919062003dea565b6040516020818303038152906040527f319af333000000000000000000000000000000000000000000000000000000007bffffffffffffffffffffffffffffffffffffffffffffffffffffffff19166020820180517bffffffffffffffffffffffffffffffffffffffffffffffffffffffff8381831617835250505050620028a9565b5050565b6000600160008373ffffffffffffffffffffffffffffffffffffffff1673ffffffffffffffffffffffffffffffffffffffff16815260200190815260200160002060040154905060008290508073ffffffffffffffffffffffffffffffffffffffff1663095ea7b3600460009054906101000a900473ffffffffffffffffffffffffffffffffffffffff1660c86040518363ffffffff1660e01b8152600401620027c892919062003e1e565b6020604051808303816000875af1158015620027e8573d6000803e3d6000fd5b505050506040513d601f19601f820116820180604052508101906200280e919062003e7c565b50600460009054906101000a900473ffffffffffffffffffffffffffffffffffffffff1673ffffffffffffffffffffffffffffffffffffffff166356688700838560c86040518463ffffffff1660e01b81526004016200287092919062003e1e565b6000604051808303818588803b1580156200288a57600080fd5b505af11580156200289f573d6000803e3d6000fd5b5050505050505050565b620028c481620028bc620028c7620028e8565b63ffffffff16565b50565b60006a636f6e736f6c652e6c6f679050600080835160208501845afa505050565b6200297c819050919050565b611d1d8062003ede83390190565b6040518061012001604052806060815260200160608152602001606081526020016060815260200160008152602001600073ffffffffffffffffffffffffffffffffffffffff168152602001600073ffffffffffffffffffffffffffffffffffffffff168152602001600015158152602001600081525090565b6200298662003eae565b565b600073ffffffffffffffffffffffffffffffffffffffff82169050919050565b6000819050919050565b6000620029d3620029cd620029c78462002988565b620029a8565b62002988565b9050919050565b6000620029e782620029b2565b9050919050565b6000620029fb82620029da565b9050919050565b62002a0d81620029ee565b82525050565b600060208201905062002a2a600083018462002a02565b92915050565b6000604051905090565b600080fd5b600080fd5b600080fd5b600080fd5b6000601f19601f8301169050919050565b7f4e487b7100000000000000000000000000000000000000000000000000000000600052604160045260246000fd5b62002a998262002a4e565b810181811067ffffffffffffffff8211171562002abb5762002aba62002a5f565b5b80604052505050565b600062002ad062002a30565b905062002ade828262002a8e565b919050565b600067ffffffffffffffff82111562002b015762002b0062002a5f565b5b62002b0c8262002a4e565b9050602081019050919050565b82818337600083830152505050565b600062002b3f62002b398462002ae3565b62002ac4565b90508281526020810184848401111562002b5e5762002b5d62002a49565b5b62002b6b84828562002b19565b509392505050565b600082601f83011262002b8b5762002b8a62002a44565b5b813562002b9d84826020860162002b28565b91505092915050565b6000806000806080858703121562002bc35762002bc262002a3a565b5b600085013567ffffffffffffffff81111562002be45762002be362002a3f565b5b62002bf28782880162002b73565b945050602085013567ffffffffffffffff81111562002c165762002c1562002a3f565b5b62002c248782880162002b73565b935050604085013567ffffffffffffffff81111562002c485762002c4762002a3f565b5b62002c568782880162002b73565b925050606085013567ffffffffffffffff81111562002c7a5762002c7962002a3f565b5b62002c888782880162002b73565b91505092959194509250565b600062002ca18262002988565b9050919050565b62002cb38162002c94565b82525050565b600060208201905062002cd0600083018462002ca8565b92915050565b62002ce18162002c94565b811462002ced57600080fd5b50565b60008135905062002d018162002cd6565b92915050565b60006020828403121562002d205762002d1f62002a3a565b5b600062002d308482850162002cf0565b91505092915050565b600081519050919050565b600082825260208201905092915050565b60005b8381101562002d7557808201518184015260208101905062002d58565b60008484015250505050565b600062002d8e8262002d39565b62002d9a818562002d44565b935062002dac81856020860162002d55565b62002db78162002a4e565b840191505092915050565b6000819050919050565b62002dd78162002dc2565b82525050565b60008115159050919050565b62002df48162002ddd565b82525050565b600061012082019050818103600083015262002e17818c62002d81565b9050818103602083015262002e2d818b62002d81565b9050818103604083015262002e43818a62002d81565b9050818103606083015262002e59818962002d81565b905062002e6a608083018862002dcc565b62002e7960a083018762002ca8565b62002e8860c083018662002ca8565b62002e9760e083018562002de9565b62002ea761010083018462002dcc565b9a9950505050505050505050565b62002ec08162002dc2565b811462002ecc57600080fd5b50565b60008135905062002ee08162002eb5565b92915050565b60006020828403121562002eff5762002efe62002a3a565b5b600062002f0f8482850162002ecf565b91505092915050565b6000806040838503121562002f325762002f3162002a3a565b5b600062002f428582860162002cf0565b925050602062002f558582860162002cf0565b9150509250929050565b600060208201905062002f76600083018462002dcc565b92915050565b600060208201905062002f93600083018462002de9565b92915050565b6000806040838503121562002fb35762002fb262002a3a565b5b600062002fc38582860162002ecf565b925050602062002fd68582860162002ecf565b9150509250929050565b600081519050919050565b600082825260208201905092915050565b6000819050602082019050919050565b600082825260208201905092915050565b60006200302a8262002d39565b6200303681856200300c565b93506200304881856020860162002d55565b620030538162002a4e565b840191505092915050565b620030698162002dc2565b82525050565b6200307a8162002c94565b82525050565b6200308b8162002ddd565b82525050565b6000610120830160008301518482036000860152620030b182826200301d565b91505060208301518482036020860152620030cd82826200301d565b91505060408301518482036040860152620030e982826200301d565b915050606083015184820360608601526200310582826200301d565b91505060808301516200311c60808601826200305e565b5060a08301516200313160a08601826200306f565b5060c08301516200314660c08601826200306f565b5060e08301516200315b60e086018262003080565b50610100830151620031726101008601826200305e565b508091505092915050565b60006200318b838362003091565b905092915050565b6000602082019050919050565b6000620031ad8262002fe0565b620031b9818562002feb565b935083602082028501620031cd8562002ffc565b8060005b858110156200320f5784840389528151620031ed85826200317d565b9450620031fa8362003193565b925060208a01995050600181019050620031d1565b50829750879550505050505092915050565b600060208201905081810360008301526200323d8184620031a0565b905092915050565b600080604083850312156200325f576200325e62002a3a565b5b60006200326f8582860162002cf0565b9250506020620032828582860162002ecf565b9150509250929050565b60006200329982620029da565b9050919050565b620032ab816200328c565b82525050565b6000602082019050620032c86000830184620032a0565b92915050565b60006060820190508181036000830152620032ea818662002d81565b9050818103602083015262003300818562002d81565b905062003311604083018462002dcc565b949350505050565b7f4e487b7100000000000000000000000000000000000000000000000000000000600052602260045260246000fd5b600060028204905060018216806200336157607f821691505b60208210810362003377576200337662003319565b5b50919050565b60008190508160005260206000209050919050565b60006020601f8301049050919050565b600082821b905092915050565b600060088302620033e17fffffffffffffffffffffffffffffffffffffffffffffffffffffffffffffffff82620033a2565b620033ed8683620033a2565b95508019841693508086168417925050509392505050565b600062003426620034206200341a8462002dc2565b620029a8565b62002dc2565b9050919050565b6000819050919050565b620034428362003405565b6200345a62003451826200342d565b848454620033af565b825550505050565b600090565b6200347162003462565b6200347e81848462003437565b505050565b5b81811015620034a6576200349a60008262003467565b60018101905062003484565b5050565b601f821115620034f557620034bf816200337d565b620034ca8462003392565b81016020851015620034da578190505b620034f2620034e98562003392565b83018262003483565b50505b505050565b600082821c905092915050565b60006200351a60001984600802620034fa565b1980831691505092915050565b600062003535838362003507565b9150826002028217905092915050565b620035508262002d39565b67ffffffffffffffff8111156200356c576200356b62002a5f565b5b62003578825462003348565b62003585828285620034aa565b600060209050601f831160018114620035bd5760008415620035a8578287015190505b620035b4858262003527565b86555062003624565b601f198416620035cd866200337d565b60005b82811015620035f757848901518255600182019150602085019450602081019050620035d0565b8683101562003617578489015162003613601f89168262003507565b8355505b6001600288020188555050505b505050505050565b7f496e646578206f7574206f6620626f756e647300000000000000000000000000600082015250565b60006200366460138362002d44565b915062003671826200362c565b602082019050919050565b60006020820190508181036000830152620036978162003655565b9050919050565b7f4e487b7100000000000000000000000000000000000000000000000000000000600052603260045260246000fd5b600081519050620036de8162002eb5565b92915050565b600060208284031215620036fd57620036fc62002a3a565b5b60006200370d84828501620036cd565b91505092915050565b7f4e487b7100000000000000000000000000000000000000000000000000000000600052601160045260246000fd5b6000620037528262002dc2565b91506200375f8362002dc2565b92508282039050818111156200377a576200377962003716565b5b92915050565b60006200378d8262002dc2565b91506200379a8362002dc2565b9250828202620037aa8162002dc2565b91508282048414831517620037c457620037c362003716565b5b5092915050565b7f4e487b7100000000000000000000000000000000000000000000000000000000600052601260045260246000fd5b6000620038078262002dc2565b9150620038148362002dc2565b925082620038275762003826620037cb565b5b828204905092915050565b600060408201905062003849600083018562002dcc565b62003858602083018462002dcc565b9392505050565b7f4c6971756964697479206e6f7420637265617465642079657400000000000000600082015250565b60006200389760198362002d44565b9150620038a4826200385f565b602082019050919050565b60006020820190508181036000830152620038ca8162003888565b9050919050565b7f52657761726420616c726561647920636c61696d656400000000000000000000600082015250565b60006200390960168362002d44565b91506200391682620038d1565b602082019050919050565b600060208201905081810360008301526200393c81620038fa565b9050919050565b7f4e6f20636f6e747269627574696f6e20666f756e640000000000000000000000600082015250565b60006200397b60158362002d44565b9150620039888262003943565b602082019050919050565b60006020820190508181036000830152620039ae816200396c565b9050919050565b7f4e6f2072657761726420617661696c61626c6500000000000000000000000000600082015250565b6000620039ed60138362002d44565b9150620039fa82620039b5565b602082019050919050565b6000602082019050818103600083015262003a2081620039de565b9050919050565b600060608201905062003a3e600083018662002ca8565b62003a4d602083018562002ca8565b62003a5c604083018462002dcc565b949350505050565b7f546f6b656e206973206e6f74206c697374656400000000000000000000000000600082015250565b600062003a9c60138362002d44565b915062003aa98262003a64565b602082019050919050565b6000602082019050818103600083015262003acf8162003a8d565b9050919050565b7f496e73756666696369656e7420746f6b656e2062616c616e6365000000000000600082015250565b600062003b0e601a8362002d44565b915062003b1b8262003ad6565b602082019050919050565b6000602082019050818103600083015262003b418162003aff565b9050919050565b7f43616e6e6f742073656c6c206d6f7265207468616e20636f6e7472696275746560008201527f6400000000000000000000000000000000000000000000000000000000000000602082015250565b600062003ba660218362002d44565b915062003bb38262003b48565b604082019050919050565b6000602082019050818103600083015262003bd98162003b97565b9050919050565b600060408201905062003bf7600083018562002dcc565b62003c06602083018462002ca8565b9392505050565b600081905092915050565b50565b600062003c2a60008362003c0d565b915062003c378262003c18565b600082019050919050565b600062003c4f8262003c1b565b9150819050919050565b7f455448207472616e73666572206661696c656400000000000000000000000000600082015250565b600062003c9160138362002d44565b915062003c9e8262003c59565b602082019050919050565b6000602082019050818103600083015262003cc48162003c82565b9050919050565b7f4e6f7420656e6f75676820617661696c61626c6520737570706c790000000000600082015250565b600062003d03601b8362002d44565b915062003d108262003ccb565b602082019050919050565b6000602082019050818103600083015262003d368162003cf4565b9050919050565b7f496e636f72726563742045544820616d6f756e742073656e7400000000000000600082015250565b600062003d7560198362002d44565b915062003d828262003d3d565b602082019050919050565b6000602082019050818103600083015262003da88162003d66565b9050919050565b600062003dbc8262002dc2565b915062003dc98362002dc2565b925082820190508082111562003de45762003de362003716565b5b92915050565b6000604082019050818103600083015262003e06818562002d81565b905062003e17602083018462002ca8565b9392505050565b600060408201905062003e35600083018562002ca8565b62003e44602083018462002dcc565b9392505050565b62003e568162002ddd565b811462003e6257600080fd5b50565b60008151905062003e768162003e4b565b92915050565b60006020828403121562003e955762003e9462002a3a565b5b600062003ea58482850162003e65565b91505092915050565b7f4e487b7100000000000000000000000000000000000000000000000000000000600052605160045260246000fdfe60806040523480156200001157600080fd5b5060405162001d1d38038062001d1d833981810160405281019062000037919062000546565b828281600390816200004a919062000821565b5080600490816200005c919062000821565b505050620000713382620000bb60201b60201c565b33600560006101000a81548173ffffffffffffffffffffffffffffffffffffffff021916908373ffffffffffffffffffffffffffffffffffffffff16021790555050505062000a3f565b600073ffffffffffffffffffffffffffffffffffffffff168273ffffffffffffffffffffffffffffffffffffffff1603620001305760006040517fec442f050000000000000000000000000000000000000000000000000000000081526004016200012791906200094d565b60405180910390fd5b62000144600083836200014860201b60201c565b5050565b600073ffffffffffffffffffffffffffffffffffffffff168373ffffffffffffffffffffffffffffffffffffffff16036200019e57806002600082825462000191919062000999565b9250508190555062000274565b60008060008573ffffffffffffffffffffffffffffffffffffffff1673ffffffffffffffffffffffffffffffffffffffff168152602001908152602001600020549050818110156200022d578381836040517fe450d38c0000000000000000000000000000000000000000000000000000000081526004016200022493929190620009e5565b60405180910390fd5b8181036000808673ffffffffffffffffffffffffffffffffffffffff1673ffffffffffffffffffffffffffffffffffffffff16815260200190815260200160002081905550505b600073ffffffffffffffffffffffffffffffffffffffff168273ffffffffffffffffffffffffffffffffffffffff1603620002bf57806002600082825403925050819055506200030c565b806000808473ffffffffffffffffffffffffffffffffffffffff1673ffffffffffffffffffffffffffffffffffffffff168152602001908152602001600020600082825401925050819055505b8173ffffffffffffffffffffffffffffffffffffffff168373ffffffffffffffffffffffffffffffffffffffff167fddf252ad1be2c89b69c2b068fc378daa952ba7f163c4a11628f55a4df523b3ef836040516200036b919062000a22565b60405180910390a3505050565b6000604051905090565b600080fd5b600080fd5b600080fd5b600080fd5b6000601f19601f8301169050919050565b7f4e487b7100000000000000000000000000000000000000000000000000000000600052604160045260246000fd5b620003e18262000396565b810181811067ffffffffffffffff82111715620004035762000402620003a7565b5b80604052505050565b60006200041862000378565b9050620004268282620003d6565b919050565b600067ffffffffffffffff821115620004495762000448620003a7565b5b620004548262000396565b9050602081019050919050565b60005b838110156200048157808201518184015260208101905062000464565b60008484015250505050565b6000620004a46200049e846200042b565b6200040c565b905082815260208101848484011115620004c357620004c262000391565b5b620004d084828562000461565b509392505050565b600082601f830112620004f057620004ef6200038c565b5b8151620005028482602086016200048d565b91505092915050565b6000819050919050565b62000520816200050b565b81146200052c57600080fd5b50565b600081519050620005408162000515565b92915050565b60008060006060848603121562000562576200056162000382565b5b600084015167ffffffffffffffff81111562000583576200058262000387565b5b6200059186828701620004d8565b935050602084015167ffffffffffffffff811115620005b557620005b462000387565b5b620005c386828701620004d8565b9250506040620005d6868287016200052f565b9150509250925092565b600081519050919050565b7f4e487b7100000000000000000000000000000000000000000000000000000000600052602260045260246000fd5b600060028204905060018216806200063357607f821691505b602082108103620006495762000648620005eb565b5b50919050565b60008190508160005260206000209050919050565b60006020601f8301049050919050565b600082821b905092915050565b600060088302620006b37fffffffffffffffffffffffffffffffffffffffffffffffffffffffffffffffff8262000674565b620006bf868362000674565b95508019841693508086168417925050509392505050565b6000819050919050565b600062000702620006fc620006f6846200050b565b620006d7565b6200050b565b9050919050565b6000819050919050565b6200071e83620006e1565b620007366200072d8262000709565b84845462000681565b825550505050565b600090565b6200074d6200073e565b6200075a81848462000713565b505050565b5b8181101562000782576200077660008262000743565b60018101905062000760565b5050565b601f821115620007d1576200079b816200064f565b620007a68462000664565b81016020851015620007b6578190505b620007ce620007c58562000664565b8301826200075f565b50505b505050565b600082821c905092915050565b6000620007f660001984600802620007d6565b1980831691505092915050565b6000620008118383620007e3565b9150826002028217905092915050565b6200082c82620005e0565b67ffffffffffffffff811115620008485762000847620003a7565b5b6200085482546200061a565b6200086182828562000786565b600060209050601f83116001811462000899576000841562000884578287015190505b62000890858262000803565b86555062000900565b601f198416620008a9866200064f565b60005b82811015620008d357848901518255600182019150602085019450602081019050620008ac565b86831015620008f35784890151620008ef601f891682620007e3565b8355505b6001600288020188555050505b505050505050565b600073ffffffffffffffffffffffffffffffffffffffff82169050919050565b6000620009358262000908565b9050919050565b620009478162000928565b82525050565b60006020820190506200096460008301846200093c565b92915050565b7f4e487b7100000000000000000000000000000000000000000000000000000000600052601160045260246000fd5b6000620009a6826200050b565b9150620009b3836200050b565b9250828201905080821115620009ce57620009cd6200096a565b5b92915050565b620009df816200050b565b82525050565b6000606082019050620009fc60008301866200093c565b62000a0b6020830185620009d4565b62000a1a6040830184620009d4565b949350505050565b600060208201905062000a396000830184620009d4565b92915050565b6112ce8062000a4f6000396000f3fe608060405234801561001057600080fd5b50600436106100b45760003560e01c80638da5cb5b116100715780638da5cb5b146101a357806394bf804d146101c157806395d89b41146101f1578063a9059cbb1461020f578063dd62ed3e1461023f578063fcd3533c1461026f576100b4565b806306fdde03146100b9578063095ea7b3146100d757806318160ddd1461010757806323b872dd14610125578063313ce5671461015557806370a0823114610173575b600080fd5b6100c161029f565b6040516100ce9190610dbe565b60405180910390f35b6100f160048036038101906100ec9190610e79565b610331565b6040516100fe9190610ed4565b60405180910390f35b61010f610354565b60405161011c9190610efe565b60405180910390f35b61013f600480360381019061013a9190610f19565b61035e565b60405161014c9190610ed4565b60405180910390f35b61015d61038d565b60405161016a9190610f88565b60405180910390f35b61018d60048036038101906101889190610fa3565b610396565b60405161019a9190610efe565b60405180910390f35b6101ab6103de565b6040516101b89190610fdf565b60405180910390f35b6101db60048036038101906101d69190610ffa565b610404565b6040516101e89190610efe565b60405180910390f35b6101f96104aa565b6040516102069190610dbe565b60405180910390f35b61022960048036038101906102249190610e79565b61053c565b6040516102369190610ed4565b60405180910390f35b6102596004803603810190610254919061103a565b61055f565b6040516102669190610efe565b60405180910390f35b61028960048036038101906102849190610ffa565b6105e6565b6040516102969190610efe565b60405180910390f35b6060600380546102ae906110a9565b80601f01602080910402602001604051908101604052809291908181526020018280546102da906110a9565b80156103275780601f106102fc57610100808354040283529160200191610327565b820191906000526020600020905b81548152906001019060200180831161030a57829003601f168201915b5050505050905090565b60008061033c61068c565b9050610349818585610694565b600191505092915050565b6000600254905090565b60008061036961068c565b90506103768582856106a6565b61038185858561073a565b60019150509392505050565b60006012905090565b60008060008373ffffffffffffffffffffffffffffffffffffffff1673ffffffffffffffffffffffffffffffffffffffff168152602001908152602001600020549050919050565b600560009054906101000a900473ffffffffffffffffffffffffffffffffffffffff1681565b6000600560009054906101000a900473ffffffffffffffffffffffffffffffffffffffff1673ffffffffffffffffffffffffffffffffffffffff163373ffffffffffffffffffffffffffffffffffffffff1614610496576040517f08c379a000000000000000000000000000000000000000000000000000000000815260040161048d9061114c565b60405180910390fd5b6104a0828461082e565b6001905092915050565b6060600480546104b9906110a9565b80601f01602080910402602001604051908101604052809291908181526020018280546104e5906110a9565b80156105325780601f1061050757610100808354040283529160200191610532565b820191906000526020600020905b81548152906001019060200180831161051557829003601f168201915b5050505050905090565b60008061054761068c565b905061055481858561073a565b600191505092915050565b6000600160008473ffffffffffffffffffffffffffffffffffffffff1673ffffffffffffffffffffffffffffffffffffffff16815260200190815260200160002060008373ffffffffffffffffffffffffffffffffffffffff1673ffffffffffffffffffffffffffffffffffffffff16815260200190815260200160002054905092915050565b6000600560009054906101000a900473ffffffffffffffffffffffffffffffffffffffff1673ffffffffffffffffffffffffffffffffffffffff163373ffffffffffffffffffffffffffffffffffffffff1614610678576040517f08c379a000000000000000000000000000000000000000000000000000000000815260040161066f906111de565b60405180910390fd5b61068282846108b0565b6001905092915050565b600033905090565b6106a18383836001610932565b505050565b60006106b2848461055f565b90507fffffffffffffffffffffffffffffffffffffffffffffffffffffffffffffffff81146107345781811015610724578281836040517ffb8f41b200000000000000000000000000000000000000000000000000000000815260040161071b939291906111fe565b60405180910390fd5b61073384848484036000610932565b5b50505050565b600073ffffffffffffffffffffffffffffffffffffffff168373ffffffffffffffffffffffffffffffffffffffff16036107ac5760006040517f96c6fd1e0000000000000000000000000000000000000000000000000000000081526004016107a39190610fdf565b60405180910390fd5b600073ffffffffffffffffffffffffffffffffffffffff168273ffffffffffffffffffffffffffffffffffffffff160361081e5760006040517fec442f050000000000000000000000000000000000000000000000000000000081526004016108159190610fdf565b60405180910390fd5b610829838383610b09565b505050565b600073ffffffffffffffffffffffffffffffffffffffff168273ffffffffffffffffffffffffffffffffffffffff16036108a05760006040517fec442f050000000000000000000000000000000000000000000000000000000081526004016108979190610fdf565b60405180910390fd5b6108ac60008383610b09565b5050565b600073ffffffffffffffffffffffffffffffffffffffff168273ffffffffffffffffffffffffffffffffffffffff16036109225760006040517f96c6fd1e0000000000000000000000000000000000000000000000000000000081526004016109199190610fdf565b60405180910390fd5b61092e82600083610b09565b5050565b600073ffffffffffffffffffffffffffffffffffffffff168473ffffffffffffffffffffffffffffffffffffffff16036109a45760006040517fe602df0500000000000000000000000000000000000000000000000000000000815260040161099b9190610fdf565b60405180910390fd5b600073ffffffffffffffffffffffffffffffffffffffff168373ffffffffffffffffffffffffffffffffffffffff1603610a165760006040517f94280d62000000000000000000000000000000000000000000000000000000008152600401610a0d9190610fdf565b60405180910390fd5b81600160008673ffffffffffffffffffffffffffffffffffffffff1673ffffffffffffffffffffffffffffffffffffffff16815260200190815260200160002060008573ffffffffffffffffffffffffffffffffffffffff1673ffffffffffffffffffffffffffffffffffffffff168152602001908152602001600020819055508015610b03578273ffffffffffffffffffffffffffffffffffffffff168473ffffffffffffffffffffffffffffffffffffffff167f8c5be1e5ebec7d5bd14f71427d1e84f3dd0314c0f7b2291e5b200ac8c7c3b92584604051610afa9190610efe565b60405180910390a35b50505050565b600073ffffffffffffffffffffffffffffffffffffffff168373ffffffffffffffffffffffffffffffffffffffff1603610b5b578060026000828254610b4f9190611264565b92505081905550610c2e565b60008060008573ffffffffffffffffffffffffffffffffffffffff1673ffffffffffffffffffffffffffffffffffffffff16815260200190815260200160002054905081811015610be7578381836040517fe450d38c000000000000000000000000000000000000000000000000000000008152600401610bde939291906111fe565b60405180910390fd5b8181036000808673ffffffffffffffffffffffffffffffffffffffff1673ffffffffffffffffffffffffffffffffffffffff16815260200190815260200160002081905550505b600073ffffffffffffffffffffffffffffffffffffffff168273ffffffffffffffffffffffffffffffffffffffff1603610c775780600260008282540392505081905550610cc4565b806000808473ffffffffffffffffffffffffffffffffffffffff1673ffffffffffffffffffffffffffffffffffffffff168152602001908152602001600020600082825401925050819055505b8173ffffffffffffffffffffffffffffffffffffffff168373ffffffffffffffffffffffffffffffffffffffff167fddf252ad1be2c89b69c2b068fc378daa952ba7f163c4a11628f55a4df523b3ef83604051610d219190610efe565b60405180910390a3505050565b600081519050919050565b600082825260208201905092915050565b60005b83811015610d68578082015181840152602081019050610d4d565b60008484015250505050565b6000601f19601f8301169050919050565b6000610d9082610d2e565b610d9a8185610d39565b9350610daa818560208601610d4a565b610db381610d74565b840191505092915050565b60006020820190508181036000830152610dd88184610d85565b905092915050565b600080fd5b600073ffffffffffffffffffffffffffffffffffffffff82169050919050565b6000610e1082610de5565b9050919050565b610e2081610e05565b8114610e2b57600080fd5b50565b600081359050610e3d81610e17565b92915050565b6000819050919050565b610e5681610e43565b8114610e6157600080fd5b50565b600081359050610e7381610e4d565b92915050565b60008060408385031215610e9057610e8f610de0565b5b6000610e9e85828601610e2e565b9250506020610eaf85828601610e64565b9150509250929050565b60008115159050919050565b610ece81610eb9565b82525050565b6000602082019050610ee96000830184610ec5565b92915050565b610ef881610e43565b82525050565b6000602082019050610f136000830184610eef565b92915050565b600080600060608486031215610f3257610f31610de0565b5b6000610f4086828701610e2e565b9350506020610f5186828701610e2e565b9250506040610f6286828701610e64565b9150509250925092565b600060ff82169050919050565b610f8281610f6c565b82525050565b6000602082019050610f9d6000830184610f79565b92915050565b600060208284031215610fb957610fb8610de0565b5b6000610fc784828501610e2e565b91505092915050565b610fd981610e05565b82525050565b6000602082019050610ff46000830184610fd0565b92915050565b6000806040838503121561101157611010610de0565b5b600061101f85828601610e64565b925050602061103085828601610e2e565b9150509250929050565b6000806040838503121561105157611050610de0565b5b600061105f85828601610e2e565b925050602061107085828601610e2e565b9150509250929050565b7f4e487b7100000000000000000000000000000000000000000000000000000000600052602260045260246000fd5b600060028204905060018216806110c157607f821691505b6020821081036110d4576110d361107a565b5b50919050565b7f4d696e742063616e206f6e6c792062652063616c6c656420627920746865206f60008201527f776e657200000000000000000000000000000000000000000000000000000000602082015250565b6000611136602483610d39565b9150611141826110da565b604082019050919050565b6000602082019050818103600083015261116581611129565b9050919050565b7f4275726e2063616e206f6e6c792062652063616c6c656420627920746865206f60008201527f776e657200000000000000000000000000000000000000000000000000000000602082015250565b60006111c8602483610d39565b91506111d38261116c565b604082019050919050565b600060208201905081810360008301526111f7816111bb565b9050919050565b60006060820190506112136000830186610fd0565b6112206020830185610eef565b61122d6040830184610eef565b949350505050565b7f4e487b7100000000000000000000000000000000000000000000000000000000600052601160045260246000fd5b600061126f82610e43565b915061127a83610e43565b925082820190508082111561129257611291611235565b5b9291505056fea2646970667358221220667dba4952a008a25641057d00bd4df2788e148645bd36fd2f3127693c13f63b64736f6c634300081800334d656d65546f6b656e2063726561746564207769746820616464726573733a202573a2646970667358221220665f2cf2583b7fb042628181c4dfcd0a0a00d6ed54e6a85cec9da86f8c52d9ea64736f6c63430008180033",
  "linkReferences": {},
  "deployedLinkReferences": {}
}