{
  "_format": "hh-sol-artifact-1",
  "contractName": "TokenFactory",
  "sourceName": "contracts/TokenFactory.sol",
  "abi": [
    {
      "inputs": [
        {
          "internalType": "address",
          "name": "_nativeLiquidityPoolAddress",
          "type": "address"
        }
      ],
      "stateMutability": "nonpayable",
      "type": "constructor"
    },
    {
      "anonymous": false,
      "inputs": [
        {
          "indexed": true,
          "internalType": "address",
          "name": "user",
          "type": "address"
        },
        {
          "indexed": true,
          "internalType": "address",
          "name": "tokenAddress",
          "type": "address"
        },
        {
          "indexed": false,
          "internalType": "uint256",
          "name": "amount",
          "type": "uint256"
        }
      ],
      "name": "RewardClaimed",
      "type": "event"
    },
    {
      "inputs": [
        {
          "internalType": "address",
          "name": "",
          "type": "address"
        }
      ],
      "name": "addressToMemeTokenMapping",
      "outputs": [
        {
          "internalType": "string",
          "name": "name",
          "type": "string"
        },
        {
          "internalType": "string",
          "name": "symbol",
          "type": "string"
        },
        {
          "internalType": "string",
          "name": "description",
          "type": "string"
        },
        {
          "internalType": "string",
          "name": "tokenImageUrl",
          "type": "string"
        },
        {
          "internalType": "uint256",
          "name": "fundingRaised",
          "type": "uint256"
        },
        {
          "internalType": "address",
          "name": "tokenAddress",
          "type": "address"
        },
        {
          "internalType": "address",
          "name": "creatorAddress",
          "type": "address"
        },
        {
          "internalType": "bool",
          "name": "isLiquidityCreated",
          "type": "bool"
        },
        {
          "internalType": "uint256",
          "name": "holders",
          "type": "uint256"
        }
      ],
      "stateMutability": "view",
      "type": "function"
    },
    {
      "inputs": [],
      "name": "bondingCurvePrecompile",
      "outputs": [
        {
          "internalType": "contract IBondingCurvePrecompile",
          "name": "",
          "type": "address"
        }
      ],
      "stateMutability": "view",
      "type": "function"
    },
    {
      "inputs": [
        {
          "internalType": "address",
          "name": "memeTokenAddress",
          "type": "address"
        },
        {
          "internalType": "uint256",
          "name": "tokenQty",
          "type": "uint256"
        }
      ],
      "name": "buyMemeToken",
      "outputs": [
        {
          "internalType": "uint256",
          "name": "",
          "type": "uint256"
        }
      ],
      "stateMutability": "payable",
      "type": "function"
    },
    {
      "inputs": [
        {
          "internalType": "address",
          "name": "memeTokenAddress",
          "type": "address"
        },
        {
          "internalType": "address",
          "name": "user",
          "type": "address"
        }
      ],
      "name": "calculateReward",
      "outputs": [
        {
          "internalType": "uint256",
          "name": "",
          "type": "uint256"
        }
      ],
      "stateMutability": "view",
      "type": "function"
    },
    {
      "inputs": [
        {
          "internalType": "address",
          "name": "memeTokenAddress",
          "type": "address"
        }
      ],
      "name": "claimReward",
      "outputs": [],
      "stateMutability": "nonpayable",
      "type": "function"
    },
    {
      "inputs": [
        {
          "internalType": "string",
          "name": "name",
          "type": "string"
        },
        {
          "internalType": "string",
          "name": "symbol",
          "type": "string"
        },
        {
          "internalType": "string",
          "name": "imageUrl",
          "type": "string"
        },
        {
          "internalType": "string",
          "name": "description",
          "type": "string"
        }
      ],
      "name": "createMemeToken",
      "outputs": [
        {
          "internalType": "address",
          "name": "",
          "type": "address"
        }
      ],
      "stateMutability": "nonpayable",
      "type": "function"
    },
    {
      "inputs": [],
      "name": "getAllMemeTokens",
      "outputs": [
        {
          "components": [
            {
              "internalType": "string",
              "name": "name",
              "type": "string"
            },
            {
              "internalType": "string",
              "name": "symbol",
              "type": "string"
            },
            {
              "internalType": "string",
              "name": "description",
              "type": "string"
            },
            {
              "internalType": "string",
              "name": "tokenImageUrl",
              "type": "string"
            },
            {
              "internalType": "uint256",
              "name": "fundingRaised",
              "type": "uint256"
            },
            {
              "internalType": "address",
              "name": "tokenAddress",
              "type": "address"
            },
            {
              "internalType": "address",
              "name": "creatorAddress",
              "type": "address"
            },
            {
              "internalType": "bool",
              "name": "isLiquidityCreated",
              "type": "bool"
            },
            {
              "internalType": "uint256",
              "name": "holders",
              "type": "uint256"
            }
          ],
          "internalType": "struct TokenFactory.memeToken[]",
          "name": "",
          "type": "tuple[]"
        }
      ],
      "stateMutability": "view",
      "type": "function"
    },
    {
      "inputs": [
        {
          "internalType": "uint256",
          "name": "currentSupply",
          "type": "uint256"
        },
        {
          "internalType": "uint256",
          "name": "tokensToBuy",
          "type": "uint256"
        }
      ],
      "name": "getCost",
      "outputs": [
        {
          "internalType": "uint256",
          "name": "",
          "type": "uint256"
        }
      ],
      "stateMutability": "nonpayable",
      "type": "function"
    },
    {
      "inputs": [
        {
          "internalType": "uint256",
          "name": "index",
          "type": "uint256"
        }
      ],
      "name": "getMemeTokenByIndex",
      "outputs": [
        {
          "internalType": "string",
          "name": "",
          "type": "string"
        },
        {
          "internalType": "string",
          "name": "",
          "type": "string"
        },
        {
          "internalType": "string",
          "name": "",
          "type": "string"
        },
        {
          "internalType": "string",
          "name": "",
          "type": "string"
        },
        {
          "internalType": "uint256",
          "name": "",
          "type": "uint256"
        },
        {
          "internalType": "address",
          "name": "",
          "type": "address"
        },
        {
          "internalType": "address",
          "name": "",
          "type": "address"
        },
        {
          "internalType": "bool",
          "name": "",
          "type": "bool"
        },
        {
          "internalType": "uint256",
          "name": "",
          "type": "uint256"
        }
      ],
      "stateMutability": "view",
      "type": "function"
    },
    {
      "inputs": [],
      "name": "getMemeTokenCount",
      "outputs": [
        {
          "internalType": "uint256",
          "name": "",
          "type": "uint256"
        }
      ],
      "stateMutability": "view",
      "type": "function"
    },
    {
      "inputs": [
        {
          "internalType": "address",
          "name": "memeTokenAddress",
          "type": "address"
        },
        {
          "internalType": "address",
          "name": "user",
          "type": "address"
        }
      ],
      "name": "getUserTokenContribution",
      "outputs": [
        {
          "internalType": "uint256",
          "name": "",
          "type": "uint256"
        }
      ],
      "stateMutability": "view",
      "type": "function"
    },
    {
      "inputs": [
        {
          "internalType": "address",
          "name": "",
          "type": "address"
        },
        {
          "internalType": "address",
          "name": "",
          "type": "address"
        }
      ],
      "name": "hasClaimedReward",
      "outputs": [
        {
          "internalType": "bool",
          "name": "",
          "type": "bool"
        }
      ],
      "stateMutability": "view",
      "type": "function"
    },
    {
      "inputs": [
        {
          "internalType": "address",
          "name": "memeTokenAddress",
          "type": "address"
        },
        {
          "internalType": "address",
          "name": "user",
          "type": "address"
        }
      ],
      "name": "hasUserClaimedReward",
      "outputs": [
        {
          "internalType": "bool",
          "name": "",
          "type": "bool"
        }
      ],
      "stateMutability": "view",
      "type": "function"
    },
    {
      "inputs": [
        {
          "internalType": "uint256",
          "name": "",
          "type": "uint256"
        }
      ],
      "name": "memeTokenAddresses",
      "outputs": [
        {
          "internalType": "address",
          "name": "",
          "type": "address"
        }
      ],
      "stateMutability": "view",
      "type": "function"
    },
    {
      "inputs": [],
      "name": "messenger",
      "outputs": [
        {
          "internalType": "contract ITeleporterMessenger",
          "name": "",
          "type": "address"
        }
      ],
      "stateMutability": "view",
      "type": "function"
    },
    {
      "inputs": [],
      "name": "nativeLiquidityPool",
      "outputs": [
        {
          "internalType": "contract NativeLiquidityPool",
          "name": "",
          "type": "address"
        }
      ],
      "stateMutability": "view",
      "type": "function"
    },
    {
      "inputs": [
        {
          "internalType": "bytes32",
          "name": "sourceBlockchainID",
          "type": "bytes32"
        },
        {
          "internalType": "address",
          "name": "originSenderAddress",
          "type": "address"
        },
        {
          "internalType": "bytes",
          "name": "message",
          "type": "bytes"
        }
      ],
      "name": "receiveTeleporterMessage",
      "outputs": [],
      "stateMutability": "nonpayable",
      "type": "function"
    },
    {
      "inputs": [
        {
          "internalType": "address",
          "name": "memeTokenAddress",
          "type": "address"
        },
        {
          "internalType": "uint256",
          "name": "tokenQty",
          "type": "uint256"
        }
      ],
      "name": "sellMemeToken",
      "outputs": [
        {
          "internalType": "uint256",
          "name": "",
          "type": "uint256"
        }
      ],
      "stateMutability": "nonpayable",
      "type": "function"
    },
    {
      "inputs": [
        {
          "internalType": "address",
          "name": "",
          "type": "address"
        },
        {
          "internalType": "address",
          "name": "",
          "type": "address"
        }
      ],
      "name": "userTokenContributions",
      "outputs": [
        {
          "internalType": "uint256",
          "name": "",
          "type": "uint256"
        }
      ],
      "stateMutability": "view",
      "type": "function"
    }
  ],
  "bytecode": "0x60a060405273253b2784c75e510dd0ff1da844684a1ac0aa5fcf73ffffffffffffffffffffffffffffffffffffffff1660809073ffffffffffffffffffffffffffffffffffffffff16815250730300000000000000000000000000000000000002600560006101000a81548173ffffffffffffffffffffffffffffffffffffffff021916908373ffffffffffffffffffffffffffffffffffffffff1602179055503480156100ac57600080fd5b5060405161639d38038061639d83398181016040528101906100ce9190610178565b80600460006101000a81548173ffffffffffffffffffffffffffffffffffffffff021916908373ffffffffffffffffffffffffffffffffffffffff160217905550506101a5565b600080fd5b600073ffffffffffffffffffffffffffffffffffffffff82169050919050565b60006101458261011a565b9050919050565b6101558161013a565b811461016057600080fd5b50565b6000815190506101728161014c565b92915050565b60006020828403121561018e5761018d610115565b5b600061019c84828501610163565b91505092915050565b6080516161cf6101ce60003960008181610aec0152818161183701526119ab01526161cf6000f3fe6080604052600436106101145760003560e01c8063a7c18c14116100a0578063d279c19111610064578063d279c19114610423578063dd5988cd1461044c578063de887eb114610489578063e27dfaa4146104b4578063e823bfd5146104f157610114565b8063a7c18c141461032a578063af62fb5e14610367578063bcfeed9a146103a4578063c77031b4146103cf578063c868efaa146103fa57610114565b80633cb747bf116100e75780633cb747bf1461020357806347fb20fd1461022e57806360484ef91461026b5780637ca44fcf146102b05780639aaa546c146102ed57610114565b8063036e8cab14610119578063075bb17d14610144578063130da9601461018157806313cb5ad6146101c6575b600080fd5b34801561012557600080fd5b5061012e610521565b60405161013b9190612bfb565b60405180910390f35b34801561015057600080fd5b5061016b60048036038101906101669190612d70565b610547565b6040516101789190612e68565b60405180910390f35b34801561018d57600080fd5b506101a860048036038101906101a39190612eaf565b6107f0565b6040516101bd99989796959493929190612f8f565b60405180910390f35b3480156101d257600080fd5b506101ed60048036038101906101e89190613064565b610aab565b6040516101fa9190612e68565b60405180910390f35b34801561020f57600080fd5b50610218610aea565b60405161022591906130b2565b60405180910390f35b34801561023a57600080fd5b50610255600480360381019061025091906130cd565b610b0e565b604051610262919061310d565b60405180910390f35b34801561027757600080fd5b50610292600480360381019061028d9190613064565b610b33565b6040516102a799989796959493929190612f8f565b60405180910390f35b3480156102bc57600080fd5b506102d760048036038101906102d291906130cd565b610f84565b6040516102e4919061310d565b60405180910390f35b3480156102f957600080fd5b50610314600480360381019061030f91906130cd565b61127f565b6040516103219190613128565b60405180910390f35b34801561033657600080fd5b50610351600480360381019061034c9190613143565b6112ae565b60405161035e919061310d565b60405180910390f35b34801561037357600080fd5b5061038e600480360381019061038991906130cd565b611356565b60405161039b919061310d565b60405180910390f35b3480156103b057600080fd5b506103b96113dd565b6040516103c69190613396565b60405180910390f35b3480156103db57600080fd5b506103e4611829565b6040516103f1919061310d565b60405180910390f35b34801561040657600080fd5b50610421600480360381019061041c919061344e565b611835565b005b34801561042f57600080fd5b5061044a60048036038101906104459190612eaf565b611b28565b005b34801561045857600080fd5b50610473600480360381019061046e91906134c2565b611f20565b604051610480919061310d565b60405180910390f35b34801561049557600080fd5b5061049e6123d7565b6040516104ab9190613523565b60405180910390f35b3480156104c057600080fd5b506104db60048036038101906104d691906130cd565b6123fd565b6040516104e89190613128565b60405180910390f35b61050b600480360381019061050691906134c2565b612491565b604051610518919061310d565b60405180910390f35b600460009054906101000a900473ffffffffffffffffffffffffffffffffffffffff1681565b600080858560c860405161055a90612aeb565b6105669392919061353e565b604051809103906000f080158015610582573d6000803e3d6000fd5b50905060008190506000604051806101200160405280898152602001888152602001868152602001878152602001600081526020018373ffffffffffffffffffffffffffffffffffffffff1681526020013373ffffffffffffffffffffffffffffffffffffffff168152602001600015158152602001600081525090506000829080600181540180825580915050600190039060005260206000200160009091909190916101000a81548173ffffffffffffffffffffffffffffffffffffffff021916908373ffffffffffffffffffffffffffffffffffffffff16021790555080600160008473ffffffffffffffffffffffffffffffffffffffff1673ffffffffffffffffffffffffffffffffffffffff16815260200190815260200160002060008201518160000190816106b79190613785565b5060208201518160010190816106cd9190613785565b5060408201518160020190816106e39190613785565b5060608201518160030190816106f99190613785565b506080820151816004015560a08201518160050160006101000a81548173ffffffffffffffffffffffffffffffffffffffff021916908373ffffffffffffffffffffffffffffffffffffffff16021790555060c08201518160060160006101000a81548173ffffffffffffffffffffffffffffffffffffffff021916908373ffffffffffffffffffffffffffffffffffffffff16021790555060e08201518160060160146101000a81548160ff02191690831515021790555061010082015181600701559050506107e26040518060600160405280602281526020016161786022913983612885565b819350505050949350505050565b6001602052806000526040600020600091509050806000018054610813906135b2565b80601f016020809104026020016040519081016040528092919081815260200182805461083f906135b2565b801561088c5780601f106108615761010080835404028352916020019161088c565b820191906000526020600020905b81548152906001019060200180831161086f57829003601f168201915b5050505050908060010180546108a1906135b2565b80601f01602080910402602001604051908101604052809291908181526020018280546108cd906135b2565b801561091a5780601f106108ef5761010080835404028352916020019161091a565b820191906000526020600020905b8154815290600101906020018083116108fd57829003601f168201915b50505050509080600201805461092f906135b2565b80601f016020809104026020016040519081016040528092919081815260200182805461095b906135b2565b80156109a85780601f1061097d576101008083540402835291602001916109a8565b820191906000526020600020905b81548152906001019060200180831161098b57829003601f168201915b5050505050908060030180546109bd906135b2565b80601f01602080910402602001604051908101604052809291908181526020018280546109e9906135b2565b8015610a365780601f10610a0b57610100808354040283529160200191610a36565b820191906000526020600020905b815481529060010190602001808311610a1957829003601f168201915b5050505050908060040154908060050160009054906101000a900473ffffffffffffffffffffffffffffffffffffffff16908060060160009054906101000a900473ffffffffffffffffffffffffffffffffffffffff16908060060160149054906101000a900460ff16908060070154905089565b60008181548110610abb57600080fd5b906000526020600020016000915054906101000a900473ffffffffffffffffffffffffffffffffffffffff1681565b7f000000000000000000000000000000000000000000000000000000000000000081565b6002602052816000526040600020602052806000526040600020600091509150505481565b606080606080600080600080600080805490508a10610b87576040517f08c379a0000000000000000000000000000000000000000000000000000000008152600401610b7e906138a3565b60405180910390fd5b600060016000808d81548110610ba057610b9f6138c3565b5b9060005260206000200160009054906101000a900473ffffffffffffffffffffffffffffffffffffffff1673ffffffffffffffffffffffffffffffffffffffff1673ffffffffffffffffffffffffffffffffffffffff16815260200190815260200160002060405180610120016040529081600082018054610c21906135b2565b80601f0160208091040260200160405190810160405280929190818152602001828054610c4d906135b2565b8015610c9a5780601f10610c6f57610100808354040283529160200191610c9a565b820191906000526020600020905b815481529060010190602001808311610c7d57829003601f168201915b50505050508152602001600182018054610cb3906135b2565b80601f0160208091040260200160405190810160405280929190818152602001828054610cdf906135b2565b8015610d2c5780601f10610d0157610100808354040283529160200191610d2c565b820191906000526020600020905b815481529060010190602001808311610d0f57829003601f168201915b50505050508152602001600282018054610d45906135b2565b80601f0160208091040260200160405190810160405280929190818152602001828054610d71906135b2565b8015610dbe5780601f10610d9357610100808354040283529160200191610dbe565b820191906000526020600020905b815481529060010190602001808311610da157829003601f168201915b50505050508152602001600382018054610dd7906135b2565b80601f0160208091040260200160405190810160405280929190818152602001828054610e03906135b2565b8015610e505780601f10610e2557610100808354040283529160200191610e50565b820191906000526020600020905b815481529060010190602001808311610e3357829003601f168201915b50505050508152602001600482015481526020016005820160009054906101000a900473ffffffffffffffffffffffffffffffffffffffff1673ffffffffffffffffffffffffffffffffffffffff1673ffffffffffffffffffffffffffffffffffffffff1681526020016006820160009054906101000a900473ffffffffffffffffffffffffffffffffffffffff1673ffffffffffffffffffffffffffffffffffffffff1673ffffffffffffffffffffffffffffffffffffffff1681526020016006820160149054906101000a900460ff161515151581526020016007820154815250509050806000015181602001518260400151836060015184608001518560a001518660c001518760e00151886101000151995099509950995099509950995099509950509193959799909294969850565b6000600160008473ffffffffffffffffffffffffffffffffffffffff1673ffffffffffffffffffffffffffffffffffffffff16815260200190815260200160002060060160149054906101000a900460ff1615806110685750600360008473ffffffffffffffffffffffffffffffffffffffff1673ffffffffffffffffffffffffffffffffffffffff16815260200190815260200160002060008373ffffffffffffffffffffffffffffffffffffffff1673ffffffffffffffffffffffffffffffffffffffff16815260200190815260200160002060009054906101000a900460ff165b806110ef57506000600260008573ffffffffffffffffffffffffffffffffffffffff1673ffffffffffffffffffffffffffffffffffffffff16815260200190815260200160002060008473ffffffffffffffffffffffffffffffffffffffff1673ffffffffffffffffffffffffffffffffffffffff16815260200190815260200160002054145b156110fd5760009050611279565b6000839050600060c88273ffffffffffffffffffffffffffffffffffffffff166318160ddd6040518163ffffffff1660e01b8152600401602060405180830381865afa158015611151573d6000803e3d6000fd5b505050506040513d601f19601f820116820180604052508101906111759190613907565b61117f9190613963565b90506000600260008773ffffffffffffffffffffffffffffffffffffffff1673ffffffffffffffffffffffffffffffffffffffff16815260200190815260200160002060008673ffffffffffffffffffffffffffffffffffffffff1673ffffffffffffffffffffffffffffffffffffffff16815260200190815260200160002054905060648261120f9190613997565b816003600160008a73ffffffffffffffffffffffffffffffffffffffff1673ffffffffffffffffffffffffffffffffffffffff1681526020019081526020016000206004015461125f9190613997565b6112699190613997565b6112739190613a08565b93505050505b92915050565b60036020528160005260406000206020528060005260406000206000915091509054906101000a900460ff1681565b6000600560009054906101000a900473ffffffffffffffffffffffffffffffffffffffff1673ffffffffffffffffffffffffffffffffffffffff1663a7c18c1484846040518363ffffffff1660e01b815260040161130d929190613a39565b602060405180830381865afa15801561132a573d6000803e3d6000fd5b505050506040513d601f19601f8201168201806040525081019061134e9190613907565b905092915050565b6000600260008473ffffffffffffffffffffffffffffffffffffffff1673ffffffffffffffffffffffffffffffffffffffff16815260200190815260200160002060008373ffffffffffffffffffffffffffffffffffffffff1673ffffffffffffffffffffffffffffffffffffffff16815260200190815260200160002054905092915050565b60606000808054905067ffffffffffffffff8111156113ff576113fe612c45565b5b60405190808252806020026020018201604052801561143857816020015b611425612af8565b81526020019060019003908161141d5790505b50905060005b6000805490508110156118215760016000808381548110611462576114616138c3565b5b9060005260206000200160009054906101000a900473ffffffffffffffffffffffffffffffffffffffff1673ffffffffffffffffffffffffffffffffffffffff1673ffffffffffffffffffffffffffffffffffffffff168152602001908152602001600020604051806101200160405290816000820180546114e3906135b2565b80601f016020809104026020016040519081016040528092919081815260200182805461150f906135b2565b801561155c5780601f106115315761010080835404028352916020019161155c565b820191906000526020600020905b81548152906001019060200180831161153f57829003601f168201915b50505050508152602001600182018054611575906135b2565b80601f01602080910402602001604051908101604052809291908181526020018280546115a1906135b2565b80156115ee5780601f106115c3576101008083540402835291602001916115ee565b820191906000526020600020905b8154815290600101906020018083116115d157829003601f168201915b50505050508152602001600282018054611607906135b2565b80601f0160208091040260200160405190810160405280929190818152602001828054611633906135b2565b80156116805780601f1061165557610100808354040283529160200191611680565b820191906000526020600020905b81548152906001019060200180831161166357829003601f168201915b50505050508152602001600382018054611699906135b2565b80601f01602080910402602001604051908101604052809291908181526020018280546116c5906135b2565b80156117125780601f106116e757610100808354040283529160200191611712565b820191906000526020600020905b8154815290600101906020018083116116f557829003601f168201915b50505050508152602001600482015481526020016005820160009054906101000a900473ffffffffffffffffffffffffffffffffffffffff1673ffffffffffffffffffffffffffffffffffffffff1673ffffffffffffffffffffffffffffffffffffffff1681526020016006820160009054906101000a900473ffffffffffffffffffffffffffffffffffffffff1673ffffffffffffffffffffffffffffffffffffffff1673ffffffffffffffffffffffffffffffffffffffff1681526020016006820160149054906101000a900460ff16151515158152602001600782015481525050828281518110611809576118086138c3565b5b6020026020010181905250808060010191505061143e565b508091505090565b60008080549050905090565b7f000000000000000000000000000000000000000000000000000000000000000073ffffffffffffffffffffffffffffffffffffffff163373ffffffffffffffffffffffffffffffffffffffff16146118c3576040517f08c379a00000000000000000000000000000000000000000000000000000000081526004016118ba90613ad4565b60405180910390fd5b60008083838101906118d59190613b32565b915091506040516020016118e890613be5565b604051602081830303815290604052805190602001208260405160200161190f9190613c2b565b60405160208183030381529060405280519060200120036119855760018060008373ffffffffffffffffffffffffffffffffffffffff1673ffffffffffffffffffffffffffffffffffffffff16815260200190815260200160002060060160146101000a81548160ff0219169083151502179055505b6000826040516020016119989190613c68565b60405160208183030381529060405290507f000000000000000000000000000000000000000000000000000000000000000073ffffffffffffffffffffffffffffffffffffffff1663624488506040518060c001604052808a81526020018973ffffffffffffffffffffffffffffffffffffffff1681526020016040518060400160405280600073ffffffffffffffffffffffffffffffffffffffff16815260200160008152508152602001620186a08152602001600067ffffffffffffffff811115611a6857611a67612c45565b5b604051908082528060200260200182016040528015611a965781602001602082028036833780820191505090505b50815260200184604051602001611aad9190613c8e565b6040516020818303038152906040528152506040518263ffffffff1660e01b8152600401611adb9190613e82565b6020604051808303816000875af1158015611afa573d6000803e3d6000fd5b505050506040513d601f19601f82011682018060405250810190611b1e9190613eb9565b5050505050505050565b600160008273ffffffffffffffffffffffffffffffffffffffff1673ffffffffffffffffffffffffffffffffffffffff16815260200190815260200160002060060160149054906101000a900460ff16611bb7576040517f08c379a0000000000000000000000000000000000000000000000000000000008152600401611bae90613f32565b60405180910390fd5b600360008273ffffffffffffffffffffffffffffffffffffffff1673ffffffffffffffffffffffffffffffffffffffff16815260200190815260200160002060003373ffffffffffffffffffffffffffffffffffffffff1673ffffffffffffffffffffffffffffffffffffffff16815260200190815260200160002060009054906101000a900460ff1615611c81576040517f08c379a0000000000000000000000000000000000000000000000000000000008152600401611c7890613f9e565b60405180910390fd5b6000600260008373ffffffffffffffffffffffffffffffffffffffff1673ffffffffffffffffffffffffffffffffffffffff16815260200190815260200160002060003373ffffffffffffffffffffffffffffffffffffffff1673ffffffffffffffffffffffffffffffffffffffff1681526020019081526020016000205411611d40576040517f08c379a0000000000000000000000000000000000000000000000000000000008152600401611d379061400a565b60405180910390fd5b6000611d4c8233610f84565b905060008111611d91576040517f08c379a0000000000000000000000000000000000000000000000000000000008152600401611d8890614076565b60405180910390fd5b6001600360008473ffffffffffffffffffffffffffffffffffffffff1673ffffffffffffffffffffffffffffffffffffffff16815260200190815260200160002060003373ffffffffffffffffffffffffffffffffffffffff1673ffffffffffffffffffffffffffffffffffffffff16815260200190815260200160002060006101000a81548160ff021916908315150217905550600460009054906101000a900473ffffffffffffffffffffffffffffffffffffffff1673ffffffffffffffffffffffffffffffffffffffff166343c605448333846040518463ffffffff1660e01b8152600401611e8593929190614096565b600060405180830381600087803b158015611e9f57600080fd5b505af1158015611eb3573d6000803e3d6000fd5b505050508173ffffffffffffffffffffffffffffffffffffffff163373ffffffffffffffffffffffffffffffffffffffff167f0aa4d283470c904c551d18bb894d37e17674920f3261a7f854be501e25f421b783604051611f14919061310d565b60405180910390a35050565b60008073ffffffffffffffffffffffffffffffffffffffff16600160008573ffffffffffffffffffffffffffffffffffffffff1673ffffffffffffffffffffffffffffffffffffffff16815260200190815260200160002060050160009054906101000a900473ffffffffffffffffffffffffffffffffffffffff1673ffffffffffffffffffffffffffffffffffffffff1603611ff2576040517f08c379a0000000000000000000000000000000000000000000000000000000008152600401611fe990614119565b60405180910390fd5b600083905060008173ffffffffffffffffffffffffffffffffffffffff166370a08231336040518263ffffffff1660e01b81526004016120329190612e68565b602060405180830381865afa15801561204f573d6000803e3d6000fd5b505050506040513d601f19601f820116820180604052508101906120739190613907565b9050838110156120b8576040517f08c379a00000000000000000000000000000000000000000000000000000000081526004016120af90614185565b60405180910390fd5b60008273ffffffffffffffffffffffffffffffffffffffff166318160ddd6040518163ffffffff1660e01b8152600401602060405180830381865afa158015612105573d6000803e3d6000fd5b505050506040513d601f19601f820116820180604052508101906121299190613907565b9050600060c88261213a9190613963565b9050600061214882886112ae565b905086600260008a73ffffffffffffffffffffffffffffffffffffffff1673ffffffffffffffffffffffffffffffffffffffff16815260200190815260200160002060003373ffffffffffffffffffffffffffffffffffffffff1673ffffffffffffffffffffffffffffffffffffffff168152602001908152602001600020541015612209576040517f08c379a000000000000000000000000000000000000000000000000000000000815260040161220090614217565b60405180910390fd5b86600260008a73ffffffffffffffffffffffffffffffffffffffff1673ffffffffffffffffffffffffffffffffffffffff16815260200190815260200160002060003373ffffffffffffffffffffffffffffffffffffffff1673ffffffffffffffffffffffffffffffffffffffff16815260200190815260200160002060008282546122959190613963565b925050819055508473ffffffffffffffffffffffffffffffffffffffff1663fcd3533c88336040518363ffffffff1660e01b81526004016122d7929190614237565b6020604051808303816000875af11580156122f6573d6000803e3d6000fd5b505050506040513d601f19601f8201168201806040525081019061231a9190613907565b5060003373ffffffffffffffffffffffffffffffffffffffff168260405161234190614291565b60006040518083038185875af1925050503d806000811461237e576040519150601f19603f3d011682016040523d82523d6000602084013e612383565b606091505b50509050806123c7576040517f08c379a00000000000000000000000000000000000000000000000000000000081526004016123be906142f2565b60405180910390fd5b6001965050505050505092915050565b600560009054906101000a900473ffffffffffffffffffffffffffffffffffffffff1681565b6000600360008473ffffffffffffffffffffffffffffffffffffffff1673ffffffffffffffffffffffffffffffffffffffff16815260200190815260200160002060008373ffffffffffffffffffffffffffffffffffffffff1673ffffffffffffffffffffffffffffffffffffffff16815260200190815260200160002060009054906101000a900460ff16905092915050565b60008073ffffffffffffffffffffffffffffffffffffffff16600160008573ffffffffffffffffffffffffffffffffffffffff1673ffffffffffffffffffffffffffffffffffffffff16815260200190815260200160002060050160009054906101000a900473ffffffffffffffffffffffffffffffffffffffff1673ffffffffffffffffffffffffffffffffffffffff1603612563576040517f08c379a000000000000000000000000000000000000000000000000000000000815260040161255a90614119565b60405180910390fd5b6000600160008573ffffffffffffffffffffffffffffffffffffffff1673ffffffffffffffffffffffffffffffffffffffff1681526020019081526020016000209050600084905060008173ffffffffffffffffffffffffffffffffffffffff166318160ddd6040518163ffffffff1660e01b8152600401602060405180830381865afa1580156125f8573d6000803e3d6000fd5b505050506040513d601f19601f8201168201806040525081019061261c9190613907565b905060008161271061262e9190613963565b905080861115612673576040517f08c379a000000000000000000000000000000000000000000000000000000000815260040161266a9061435e565b60405180910390fd5b600060c8836126829190613963565b9050600061269082896112ae565b9050803410156126d5576040517f08c379a00000000000000000000000000000000000000000000000000000000081526004016126cc906143ca565b60405180910390fd5b87600260008b73ffffffffffffffffffffffffffffffffffffffff1673ffffffffffffffffffffffffffffffffffffffff16815260200190815260200160002060003373ffffffffffffffffffffffffffffffffffffffff1673ffffffffffffffffffffffffffffffffffffffff168152602001908152602001600020600082825461276191906143ea565b925050819055503486600401600082825461277c91906143ea565b9250508190555067016345785d8a00008660040154101580156127ae57508560060160149054906101000a900460ff16155b156127da576127bc89612921565b60018660060160146101000a81548160ff0219169083151502179055505b60018660070160008282546127ef91906143ea565b925050819055508473ffffffffffffffffffffffffffffffffffffffff166394bf804d89336040518363ffffffff1660e01b8152600401612831929190614237565b6020604051808303816000875af1158015612850573d6000803e3d6000fd5b505050506040513d601f19601f820116820180604052508101906128749190613907565b506001965050505050505092915050565b61291d828260405160240161289b92919061441e565b6040516020818303038152906040527f319af333000000000000000000000000000000000000000000000000000000007bffffffffffffffffffffffffffffffffffffffffffffffffffffffff19166020820180517bffffffffffffffffffffffffffffffffffffffffffffffffffffffff8381831617835250505050612aa5565b5050565b6000600160008373ffffffffffffffffffffffffffffffffffffffff1673ffffffffffffffffffffffffffffffffffffffff16815260200190815260200160002060040154905060008290508073ffffffffffffffffffffffffffffffffffffffff1663095ea7b3600460009054906101000a900473ffffffffffffffffffffffffffffffffffffffff1660c86040518363ffffffff1660e01b81526004016129cb92919061444e565b6020604051808303816000875af11580156129ea573d6000803e3d6000fd5b505050506040513d601f19601f82011682018060405250810190612a0e91906144a3565b50600460009054906101000a900473ffffffffffffffffffffffffffffffffffffffff1673ffffffffffffffffffffffffffffffffffffffff166356688700838560c86040518463ffffffff1660e01b8152600401612a6e92919061444e565b6000604051808303818588803b158015612a8757600080fd5b505af1158015612a9b573d6000803e3d6000fd5b5050505050505050565b612abc81612ab4612abf612ae0565b63ffffffff16565b50565b60006a636f6e736f6c652e6c6f679050600080835160208501845afa505050565b612b72819050919050565b611c788061450083390190565b6040518061012001604052806060815260200160608152602001606081526020016060815260200160008152602001600073ffffffffffffffffffffffffffffffffffffffff168152602001600073ffffffffffffffffffffffffffffffffffffffff168152602001600015158152602001600081525090565b612b7a6144d0565b565b600073ffffffffffffffffffffffffffffffffffffffff82169050919050565b6000819050919050565b6000612bc1612bbc612bb784612b7c565b612b9c565b612b7c565b9050919050565b6000612bd382612ba6565b9050919050565b6000612be582612bc8565b9050919050565b612bf581612bda565b82525050565b6000602082019050612c106000830184612bec565b92915050565b6000604051905090565b600080fd5b600080fd5b600080fd5b600080fd5b6000601f19601f8301169050919050565b7f4e487b7100000000000000000000000000000000000000000000000000000000600052604160045260246000fd5b612c7d82612c34565b810181811067ffffffffffffffff82111715612c9c57612c9b612c45565b5b80604052505050565b6000612caf612c16565b9050612cbb8282612c74565b919050565b600067ffffffffffffffff821115612cdb57612cda612c45565b5b612ce482612c34565b9050602081019050919050565b82818337600083830152505050565b6000612d13612d0e84612cc0565b612ca5565b905082815260208101848484011115612d2f57612d2e612c2f565b5b612d3a848285612cf1565b509392505050565b600082601f830112612d5757612d56612c2a565b5b8135612d67848260208601612d00565b91505092915050565b60008060008060808587031215612d8a57612d89612c20565b5b600085013567ffffffffffffffff811115612da857612da7612c25565b5b612db487828801612d42565b945050602085013567ffffffffffffffff811115612dd557612dd4612c25565b5b612de187828801612d42565b935050604085013567ffffffffffffffff811115612e0257612e01612c25565b5b612e0e87828801612d42565b925050606085013567ffffffffffffffff811115612e2f57612e2e612c25565b5b612e3b87828801612d42565b91505092959194509250565b6000612e5282612b7c565b9050919050565b612e6281612e47565b82525050565b6000602082019050612e7d6000830184612e59565b92915050565b612e8c81612e47565b8114612e9757600080fd5b50565b600081359050612ea981612e83565b92915050565b600060208284031215612ec557612ec4612c20565b5b6000612ed384828501612e9a565b91505092915050565b600081519050919050565b600082825260208201905092915050565b60005b83811015612f16578082015181840152602081019050612efb565b60008484015250505050565b6000612f2d82612edc565b612f378185612ee7565b9350612f47818560208601612ef8565b612f5081612c34565b840191505092915050565b6000819050919050565b612f6e81612f5b565b82525050565b60008115159050919050565b612f8981612f74565b82525050565b6000610120820190508181036000830152612faa818c612f22565b90508181036020830152612fbe818b612f22565b90508181036040830152612fd2818a612f22565b90508181036060830152612fe68189612f22565b9050612ff56080830188612f65565b61300260a0830187612e59565b61300f60c0830186612e59565b61301c60e0830185612f80565b61302a610100830184612f65565b9a9950505050505050505050565b61304181612f5b565b811461304c57600080fd5b50565b60008135905061305e81613038565b92915050565b60006020828403121561307a57613079612c20565b5b60006130888482850161304f565b91505092915050565b600061309c82612bc8565b9050919050565b6130ac81613091565b82525050565b60006020820190506130c760008301846130a3565b92915050565b600080604083850312156130e4576130e3612c20565b5b60006130f285828601612e9a565b925050602061310385828601612e9a565b9150509250929050565b60006020820190506131226000830184612f65565b92915050565b600060208201905061313d6000830184612f80565b92915050565b6000806040838503121561315a57613159612c20565b5b60006131688582860161304f565b92505060206131798582860161304f565b9150509250929050565b600081519050919050565b600082825260208201905092915050565b6000819050602082019050919050565b600082825260208201905092915050565b60006131cb82612edc565b6131d581856131af565b93506131e5818560208601612ef8565b6131ee81612c34565b840191505092915050565b61320281612f5b565b82525050565b61321181612e47565b82525050565b61322081612f74565b82525050565b600061012083016000830151848203600086015261324482826131c0565b9150506020830151848203602086015261325e82826131c0565b9150506040830151848203604086015261327882826131c0565b9150506060830151848203606086015261329282826131c0565b91505060808301516132a760808601826131f9565b5060a08301516132ba60a0860182613208565b5060c08301516132cd60c0860182613208565b5060e08301516132e060e0860182613217565b506101008301516132f56101008601826131f9565b508091505092915050565b600061330c8383613226565b905092915050565b6000602082019050919050565b600061332c82613183565b613336818561318e565b9350836020820285016133488561319f565b8060005b8581101561338457848403895281516133658582613300565b945061337083613314565b925060208a0199505060018101905061334c565b50829750879550505050505092915050565b600060208201905081810360008301526133b08184613321565b905092915050565b6000819050919050565b6133cb816133b8565b81146133d657600080fd5b50565b6000813590506133e8816133c2565b92915050565b600080fd5b600080fd5b60008083601f84011261340e5761340d612c2a565b5b8235905067ffffffffffffffff81111561342b5761342a6133ee565b5b602083019150836001820283011115613447576134466133f3565b5b9250929050565b6000806000806060858703121561346857613467612c20565b5b6000613476878288016133d9565b945050602061348787828801612e9a565b935050604085013567ffffffffffffffff8111156134a8576134a7612c25565b5b6134b4878288016133f8565b925092505092959194509250565b600080604083850312156134d9576134d8612c20565b5b60006134e785828601612e9a565b92505060206134f88582860161304f565b9150509250929050565b600061350d82612bc8565b9050919050565b61351d81613502565b82525050565b60006020820190506135386000830184613514565b92915050565b600060608201905081810360008301526135588186612f22565b9050818103602083015261356c8185612f22565b905061357b6040830184612f65565b949350505050565b7f4e487b7100000000000000000000000000000000000000000000000000000000600052602260045260246000fd5b600060028204905060018216806135ca57607f821691505b6020821081036135dd576135dc613583565b5b50919050565b60008190508160005260206000209050919050565b60006020601f8301049050919050565b600082821b905092915050565b6000600883026136457fffffffffffffffffffffffffffffffffffffffffffffffffffffffffffffffff82613608565b61364f8683613608565b95508019841693508086168417925050509392505050565b600061368261367d61367884612f5b565b612b9c565b612f5b565b9050919050565b6000819050919050565b61369c83613667565b6136b06136a882613689565b848454613615565b825550505050565b600090565b6136c56136b8565b6136d0818484613693565b505050565b5b818110156136f4576136e96000826136bd565b6001810190506136d6565b5050565b601f8211156137395761370a816135e3565b613713846135f8565b81016020851015613722578190505b61373661372e856135f8565b8301826136d5565b50505b505050565b600082821c905092915050565b600061375c6000198460080261373e565b1980831691505092915050565b6000613775838361374b565b9150826002028217905092915050565b61378e82612edc565b67ffffffffffffffff8111156137a7576137a6612c45565b5b6137b182546135b2565b6137bc8282856136f8565b600060209050601f8311600181146137ef57600084156137dd578287015190505b6137e78582613769565b86555061384f565b601f1984166137fd866135e3565b60005b8281101561382557848901518255600182019150602085019450602081019050613800565b86831015613842578489015161383e601f89168261374b565b8355505b6001600288020188555050505b505050505050565b7f496e646578206f7574206f6620626f756e647300000000000000000000000000600082015250565b600061388d601383612ee7565b915061389882613857565b602082019050919050565b600060208201905081810360008301526138bc81613880565b9050919050565b7f4e487b7100000000000000000000000000000000000000000000000000000000600052603260045260246000fd5b60008151905061390181613038565b92915050565b60006020828403121561391d5761391c612c20565b5b600061392b848285016138f2565b91505092915050565b7f4e487b7100000000000000000000000000000000000000000000000000000000600052601160045260246000fd5b600061396e82612f5b565b915061397983612f5b565b925082820390508181111561399157613990613934565b5b92915050565b60006139a282612f5b565b91506139ad83612f5b565b92508282026139bb81612f5b565b915082820484148315176139d2576139d1613934565b5b5092915050565b7f4e487b7100000000000000000000000000000000000000000000000000000000600052601260045260246000fd5b6000613a1382612f5b565b9150613a1e83612f5b565b925082613a2e57613a2d6139d9565b5b828204905092915050565b6000604082019050613a4e6000830185612f65565b613a5b6020830184612f65565b9392505050565b7f52656365697665724f6e5375626e65743a20756e617574686f72697a6564205460008201527f656c65706f727465724d657373656e6765720000000000000000000000000000602082015250565b6000613abe603283612ee7565b9150613ac982613a62565b604082019050919050565b60006020820190508181036000830152613aed81613ab1565b9050919050565b6000613aff82612b7c565b9050919050565b613b0f81613af4565b8114613b1a57600080fd5b50565b600081359050613b2c81613b06565b92915050565b60008060408385031215613b4957613b48612c20565b5b600083013567ffffffffffffffff811115613b6757613b66612c25565b5b613b7385828601612d42565b9250506020613b8485828601613b1d565b9150509250929050565b600081905092915050565b7f4c69717569646974794372656174656400000000000000000000000000000000600082015250565b6000613bcf601083613b8e565b9150613bda82613b99565b601082019050919050565b6000613bf082613bc2565b9150819050919050565b6000613c0582612edc565b613c0f8185613b8e565b9350613c1f818560208601612ef8565b80840191505092915050565b6000613c378284613bfa565b915081905092915050565b7f2070726f636573736564206f6e20746172676574207375626e65742100000000815250565b6000613c748284613bfa565b9150613c7f82613c42565b601c8201915081905092915050565b60006020820190508181036000830152613ca88184612f22565b905092915050565b613cb9816133b8565b82525050565b604082016000820151613cd56000850182613208565b506020820151613ce860208501826131f9565b50505050565b600081519050919050565b600082825260208201905092915050565b6000819050602082019050919050565b6000613d268383613208565b60208301905092915050565b6000602082019050919050565b6000613d4a82613cee565b613d548185613cf9565b9350613d5f83613d0a565b8060005b83811015613d90578151613d778882613d1a565b9750613d8283613d32565b925050600181019050613d63565b5085935050505092915050565b600081519050919050565b600082825260208201905092915050565b6000613dc482613d9d565b613dce8185613da8565b9350613dde818560208601612ef8565b613de781612c34565b840191505092915050565b600060e083016000830151613e0a6000860182613cb0565b506020830151613e1d6020860182613208565b506040830151613e306040860182613cbf565b506060830151613e4360808601826131f9565b50608083015184820360a0860152613e5b8282613d3f565b91505060a083015184820360c0860152613e758282613db9565b9150508091505092915050565b60006020820190508181036000830152613e9c8184613df2565b905092915050565b600081519050613eb3816133c2565b92915050565b600060208284031215613ecf57613ece612c20565b5b6000613edd84828501613ea4565b91505092915050565b7f4c6971756964697479206e6f7420637265617465642079657400000000000000600082015250565b6000613f1c601983612ee7565b9150613f2782613ee6565b602082019050919050565b60006020820190508181036000830152613f4b81613f0f565b9050919050565b7f52657761726420616c726561647920636c61696d656400000000000000000000600082015250565b6000613f88601683612ee7565b9150613f9382613f52565b602082019050919050565b60006020820190508181036000830152613fb781613f7b565b9050919050565b7f4e6f20636f6e747269627574696f6e20666f756e640000000000000000000000600082015250565b6000613ff4601583612ee7565b9150613fff82613fbe565b602082019050919050565b6000602082019050818103600083015261402381613fe7565b9050919050565b7f4e6f2072657761726420617661696c61626c6500000000000000000000000000600082015250565b6000614060601383612ee7565b915061406b8261402a565b602082019050919050565b6000602082019050818103600083015261408f81614053565b9050919050565b60006060820190506140ab6000830186612e59565b6140b86020830185612e59565b6140c56040830184612f65565b949350505050565b7f546f6b656e206973206e6f74206c697374656400000000000000000000000000600082015250565b6000614103601383612ee7565b915061410e826140cd565b602082019050919050565b60006020820190508181036000830152614132816140f6565b9050919050565b7f496e73756666696369656e7420746f6b656e2062616c616e6365000000000000600082015250565b600061416f601a83612ee7565b915061417a82614139565b602082019050919050565b6000602082019050818103600083015261419e81614162565b9050919050565b7f43616e6e6f742073656c6c206d6f7265207468616e20636f6e7472696275746560008201527f6400000000000000000000000000000000000000000000000000000000000000602082015250565b6000614201602183612ee7565b915061420c826141a5565b604082019050919050565b60006020820190508181036000830152614230816141f4565b9050919050565b600060408201905061424c6000830185612f65565b6142596020830184612e59565b9392505050565b600081905092915050565b50565b600061427b600083614260565b91506142868261426b565b600082019050919050565b600061429c8261426e565b9150819050919050565b7f455448207472616e73666572206661696c656400000000000000000000000000600082015250565b60006142dc601383612ee7565b91506142e7826142a6565b602082019050919050565b6000602082019050818103600083015261430b816142cf565b9050919050565b7f4e6f7420656e6f75676820617661696c61626c6520737570706c790000000000600082015250565b6000614348601b83612ee7565b915061435382614312565b602082019050919050565b600060208201905081810360008301526143778161433b565b9050919050565b7f496e636f72726563742045544820616d6f756e742073656e7400000000000000600082015250565b60006143b4601983612ee7565b91506143bf8261437e565b602082019050919050565b600060208201905081810360008301526143e3816143a7565b9050919050565b60006143f582612f5b565b915061440083612f5b565b925082820190508082111561441857614417613934565b5b92915050565b600060408201905081810360008301526144388185612f22565b90506144476020830184612e59565b9392505050565b60006040820190506144636000830185612e59565b6144706020830184612f65565b9392505050565b61448081612f74565b811461448b57600080fd5b50565b60008151905061449d81614477565b92915050565b6000602082840312156144b9576144b8612c20565b5b60006144c78482850161448e565b91505092915050565b7f4e487b7100000000000000000000000000000000000000000000000000000000600052605160045260246000fdfe608060405234801561001057600080fd5b50604051611c78380380611c7883398181016040528101906100329190610507565b8282816003908161004391906107a9565b50806004908161005391906107a9565b50505061006633826100af60201b60201c565b33600560006101000a81548173ffffffffffffffffffffffffffffffffffffffff021916908373ffffffffffffffffffffffffffffffffffffffff16021790555050505061099b565b600073ffffffffffffffffffffffffffffffffffffffff168273ffffffffffffffffffffffffffffffffffffffff16036101215760006040517fec442f0500000000000000000000000000000000000000000000000000000000815260040161011891906108bc565b60405180910390fd5b6101336000838361013760201b60201c565b5050565b600073ffffffffffffffffffffffffffffffffffffffff168373ffffffffffffffffffffffffffffffffffffffff160361018957806002600082825461017d9190610906565b9250508190555061025c565b60008060008573ffffffffffffffffffffffffffffffffffffffff1673ffffffffffffffffffffffffffffffffffffffff16815260200190815260200160002054905081811015610215578381836040517fe450d38c00000000000000000000000000000000000000000000000000000000815260040161020c93929190610949565b60405180910390fd5b8181036000808673ffffffffffffffffffffffffffffffffffffffff1673ffffffffffffffffffffffffffffffffffffffff16815260200190815260200160002081905550505b600073ffffffffffffffffffffffffffffffffffffffff168273ffffffffffffffffffffffffffffffffffffffff16036102a557806002600082825403925050819055506102f2565b806000808473ffffffffffffffffffffffffffffffffffffffff1673ffffffffffffffffffffffffffffffffffffffff168152602001908152602001600020600082825401925050819055505b8173ffffffffffffffffffffffffffffffffffffffff168373ffffffffffffffffffffffffffffffffffffffff167fddf252ad1be2c89b69c2b068fc378daa952ba7f163c4a11628f55a4df523b3ef8360405161034f9190610980565b60405180910390a3505050565b6000604051905090565b600080fd5b600080fd5b600080fd5b600080fd5b6000601f19601f8301169050919050565b7f4e487b7100000000000000000000000000000000000000000000000000000000600052604160045260246000fd5b6103c38261037a565b810181811067ffffffffffffffff821117156103e2576103e161038b565b5b80604052505050565b60006103f561035c565b905061040182826103ba565b919050565b600067ffffffffffffffff8211156104215761042061038b565b5b61042a8261037a565b9050602081019050919050565b60005b8381101561045557808201518184015260208101905061043a565b60008484015250505050565b600061047461046f84610406565b6103eb565b9050828152602081018484840111156104905761048f610375565b5b61049b848285610437565b509392505050565b600082601f8301126104b8576104b7610370565b5b81516104c8848260208601610461565b91505092915050565b6000819050919050565b6104e4816104d1565b81146104ef57600080fd5b50565b600081519050610501816104db565b92915050565b6000806000606084860312156105205761051f610366565b5b600084015167ffffffffffffffff81111561053e5761053d61036b565b5b61054a868287016104a3565b935050602084015167ffffffffffffffff81111561056b5761056a61036b565b5b610577868287016104a3565b9250506040610588868287016104f2565b9150509250925092565b600081519050919050565b7f4e487b7100000000000000000000000000000000000000000000000000000000600052602260045260246000fd5b600060028204905060018216806105e457607f821691505b6020821081036105f7576105f661059d565b5b50919050565b60008190508160005260206000209050919050565b60006020601f8301049050919050565b600082821b905092915050565b60006008830261065f7fffffffffffffffffffffffffffffffffffffffffffffffffffffffffffffffff82610622565b6106698683610622565b95508019841693508086168417925050509392505050565b6000819050919050565b60006106a66106a161069c846104d1565b610681565b6104d1565b9050919050565b6000819050919050565b6106c08361068b565b6106d46106cc826106ad565b84845461062f565b825550505050565b600090565b6106e96106dc565b6106f48184846106b7565b505050565b5b818110156107185761070d6000826106e1565b6001810190506106fa565b5050565b601f82111561075d5761072e816105fd565b61073784610612565b81016020851015610746578190505b61075a61075285610612565b8301826106f9565b50505b505050565b600082821c905092915050565b600061078060001984600802610762565b1980831691505092915050565b6000610799838361076f565b9150826002028217905092915050565b6107b282610592565b67ffffffffffffffff8111156107cb576107ca61038b565b5b6107d582546105cc565b6107e082828561071c565b600060209050601f8311600181146108135760008415610801578287015190505b61080b858261078d565b865550610873565b601f198416610821866105fd565b60005b8281101561084957848901518255600182019150602085019450602081019050610824565b868310156108665784890151610862601f89168261076f565b8355505b6001600288020188555050505b505050505050565b600073ffffffffffffffffffffffffffffffffffffffff82169050919050565b60006108a68261087b565b9050919050565b6108b68161089b565b82525050565b60006020820190506108d160008301846108ad565b92915050565b7f4e487b7100000000000000000000000000000000000000000000000000000000600052601160045260246000fd5b6000610911826104d1565b915061091c836104d1565b9250828201905080821115610934576109336108d7565b5b92915050565b610943816104d1565b82525050565b600060608201905061095e60008301866108ad565b61096b602083018561093a565b610978604083018461093a565b949350505050565b6000602082019050610995600083018461093a565b92915050565b6112ce806109aa6000396000f3fe608060405234801561001057600080fd5b50600436106100b45760003560e01c80638da5cb5b116100715780638da5cb5b146101a357806394bf804d146101c157806395d89b41146101f1578063a9059cbb1461020f578063dd62ed3e1461023f578063fcd3533c1461026f576100b4565b806306fdde03146100b9578063095ea7b3146100d757806318160ddd1461010757806323b872dd14610125578063313ce5671461015557806370a0823114610173575b600080fd5b6100c161029f565b6040516100ce9190610dbe565b60405180910390f35b6100f160048036038101906100ec9190610e79565b610331565b6040516100fe9190610ed4565b60405180910390f35b61010f610354565b60405161011c9190610efe565b60405180910390f35b61013f600480360381019061013a9190610f19565b61035e565b60405161014c9190610ed4565b60405180910390f35b61015d61038d565b60405161016a9190610f88565b60405180910390f35b61018d60048036038101906101889190610fa3565b610396565b60405161019a9190610efe565b60405180910390f35b6101ab6103de565b6040516101b89190610fdf565b60405180910390f35b6101db60048036038101906101d69190610ffa565b610404565b6040516101e89190610efe565b60405180910390f35b6101f96104aa565b6040516102069190610dbe565b60405180910390f35b61022960048036038101906102249190610e79565b61053c565b6040516102369190610ed4565b60405180910390f35b6102596004803603810190610254919061103a565b61055f565b6040516102669190610efe565b60405180910390f35b61028960048036038101906102849190610ffa565b6105e6565b6040516102969190610efe565b60405180910390f35b6060600380546102ae906110a9565b80601f01602080910402602001604051908101604052809291908181526020018280546102da906110a9565b80156103275780601f106102fc57610100808354040283529160200191610327565b820191906000526020600020905b81548152906001019060200180831161030a57829003601f168201915b5050505050905090565b60008061033c61068c565b9050610349818585610694565b600191505092915050565b6000600254905090565b60008061036961068c565b90506103768582856106a6565b61038185858561073a565b60019150509392505050565b60006012905090565b60008060008373ffffffffffffffffffffffffffffffffffffffff1673ffffffffffffffffffffffffffffffffffffffff168152602001908152602001600020549050919050565b600560009054906101000a900473ffffffffffffffffffffffffffffffffffffffff1681565b6000600560009054906101000a900473ffffffffffffffffffffffffffffffffffffffff1673ffffffffffffffffffffffffffffffffffffffff163373ffffffffffffffffffffffffffffffffffffffff1614610496576040517f08c379a000000000000000000000000000000000000000000000000000000000815260040161048d9061114c565b60405180910390fd5b6104a0828461082e565b6001905092915050565b6060600480546104b9906110a9565b80601f01602080910402602001604051908101604052809291908181526020018280546104e5906110a9565b80156105325780601f1061050757610100808354040283529160200191610532565b820191906000526020600020905b81548152906001019060200180831161051557829003601f168201915b5050505050905090565b60008061054761068c565b905061055481858561073a565b600191505092915050565b6000600160008473ffffffffffffffffffffffffffffffffffffffff1673ffffffffffffffffffffffffffffffffffffffff16815260200190815260200160002060008373ffffffffffffffffffffffffffffffffffffffff1673ffffffffffffffffffffffffffffffffffffffff16815260200190815260200160002054905092915050565b6000600560009054906101000a900473ffffffffffffffffffffffffffffffffffffffff1673ffffffffffffffffffffffffffffffffffffffff163373ffffffffffffffffffffffffffffffffffffffff1614610678576040517f08c379a000000000000000000000000000000000000000000000000000000000815260040161066f906111de565b60405180910390fd5b61068282846108b0565b6001905092915050565b600033905090565b6106a18383836001610932565b505050565b60006106b2848461055f565b90507fffffffffffffffffffffffffffffffffffffffffffffffffffffffffffffffff81146107345781811015610724578281836040517ffb8f41b200000000000000000000000000000000000000000000000000000000815260040161071b939291906111fe565b60405180910390fd5b61073384848484036000610932565b5b50505050565b600073ffffffffffffffffffffffffffffffffffffffff168373ffffffffffffffffffffffffffffffffffffffff16036107ac5760006040517f96c6fd1e0000000000000000000000000000000000000000000000000000000081526004016107a39190610fdf565b60405180910390fd5b600073ffffffffffffffffffffffffffffffffffffffff168273ffffffffffffffffffffffffffffffffffffffff160361081e5760006040517fec442f050000000000000000000000000000000000000000000000000000000081526004016108159190610fdf565b60405180910390fd5b610829838383610b09565b505050565b600073ffffffffffffffffffffffffffffffffffffffff168273ffffffffffffffffffffffffffffffffffffffff16036108a05760006040517fec442f050000000000000000000000000000000000000000000000000000000081526004016108979190610fdf565b60405180910390fd5b6108ac60008383610b09565b5050565b600073ffffffffffffffffffffffffffffffffffffffff168273ffffffffffffffffffffffffffffffffffffffff16036109225760006040517f96c6fd1e0000000000000000000000000000000000000000000000000000000081526004016109199190610fdf565b60405180910390fd5b61092e82600083610b09565b5050565b600073ffffffffffffffffffffffffffffffffffffffff168473ffffffffffffffffffffffffffffffffffffffff16036109a45760006040517fe602df0500000000000000000000000000000000000000000000000000000000815260040161099b9190610fdf565b60405180910390fd5b600073ffffffffffffffffffffffffffffffffffffffff168373ffffffffffffffffffffffffffffffffffffffff1603610a165760006040517f94280d62000000000000000000000000000000000000000000000000000000008152600401610a0d9190610fdf565b60405180910390fd5b81600160008673ffffffffffffffffffffffffffffffffffffffff1673ffffffffffffffffffffffffffffffffffffffff16815260200190815260200160002060008573ffffffffffffffffffffffffffffffffffffffff1673ffffffffffffffffffffffffffffffffffffffff168152602001908152602001600020819055508015610b03578273ffffffffffffffffffffffffffffffffffffffff168473ffffffffffffffffffffffffffffffffffffffff167f8c5be1e5ebec7d5bd14f71427d1e84f3dd0314c0f7b2291e5b200ac8c7c3b92584604051610afa9190610efe565b60405180910390a35b50505050565b600073ffffffffffffffffffffffffffffffffffffffff168373ffffffffffffffffffffffffffffffffffffffff1603610b5b578060026000828254610b4f9190611264565b92505081905550610c2e565b60008060008573ffffffffffffffffffffffffffffffffffffffff1673ffffffffffffffffffffffffffffffffffffffff16815260200190815260200160002054905081811015610be7578381836040517fe450d38c000000000000000000000000000000000000000000000000000000008152600401610bde939291906111fe565b60405180910390fd5b8181036000808673ffffffffffffffffffffffffffffffffffffffff1673ffffffffffffffffffffffffffffffffffffffff16815260200190815260200160002081905550505b600073ffffffffffffffffffffffffffffffffffffffff168273ffffffffffffffffffffffffffffffffffffffff1603610c775780600260008282540392505081905550610cc4565b806000808473ffffffffffffffffffffffffffffffffffffffff1673ffffffffffffffffffffffffffffffffffffffff168152602001908152602001600020600082825401925050819055505b8173ffffffffffffffffffffffffffffffffffffffff168373ffffffffffffffffffffffffffffffffffffffff167fddf252ad1be2c89b69c2b068fc378daa952ba7f163c4a11628f55a4df523b3ef83604051610d219190610efe565b60405180910390a3505050565b600081519050919050565b600082825260208201905092915050565b60005b83811015610d68578082015181840152602081019050610d4d565b60008484015250505050565b6000601f19601f8301169050919050565b6000610d9082610d2e565b610d9a8185610d39565b9350610daa818560208601610d4a565b610db381610d74565b840191505092915050565b60006020820190508181036000830152610dd88184610d85565b905092915050565b600080fd5b600073ffffffffffffffffffffffffffffffffffffffff82169050919050565b6000610e1082610de5565b9050919050565b610e2081610e05565b8114610e2b57600080fd5b50565b600081359050610e3d81610e17565b92915050565b6000819050919050565b610e5681610e43565b8114610e6157600080fd5b50565b600081359050610e7381610e4d565b92915050565b60008060408385031215610e9057610e8f610de0565b5b6000610e9e85828601610e2e565b9250506020610eaf85828601610e64565b9150509250929050565b60008115159050919050565b610ece81610eb9565b82525050565b6000602082019050610ee96000830184610ec5565b92915050565b610ef881610e43565b82525050565b6000602082019050610f136000830184610eef565b92915050565b600080600060608486031215610f3257610f31610de0565b5b6000610f4086828701610e2e565b9350506020610f5186828701610e2e565b9250506040610f6286828701610e64565b9150509250925092565b600060ff82169050919050565b610f8281610f6c565b82525050565b6000602082019050610f9d6000830184610f79565b92915050565b600060208284031215610fb957610fb8610de0565b5b6000610fc784828501610e2e565b91505092915050565b610fd981610e05565b82525050565b6000602082019050610ff46000830184610fd0565b92915050565b6000806040838503121561101157611010610de0565b5b600061101f85828601610e64565b925050602061103085828601610e2e565b9150509250929050565b6000806040838503121561105157611050610de0565b5b600061105f85828601610e2e565b925050602061107085828601610e2e565b9150509250929050565b7f4e487b7100000000000000000000000000000000000000000000000000000000600052602260045260246000fd5b600060028204905060018216806110c157607f821691505b6020821081036110d4576110d361107a565b5b50919050565b7f4d696e742063616e206f6e6c792062652063616c6c656420627920746865206f60008201527f776e657200000000000000000000000000000000000000000000000000000000602082015250565b6000611136602483610d39565b9150611141826110da565b604082019050919050565b6000602082019050818103600083015261116581611129565b9050919050565b7f4275726e2063616e206f6e6c792062652063616c6c656420627920746865206f60008201527f776e657200000000000000000000000000000000000000000000000000000000602082015250565b60006111c8602483610d39565b91506111d38261116c565b604082019050919050565b600060208201905081810360008301526111f7816111bb565b9050919050565b60006060820190506112136000830186610fd0565b6112206020830185610eef565b61122d6040830184610eef565b949350505050565b7f4e487b7100000000000000000000000000000000000000000000000000000000600052601160045260246000fd5b600061126f82610e43565b915061127a83610e43565b925082820190508082111561129257611291611235565b5b9291505056fea2646970667358221220fa01ff045e56126074fb0a141e3089ba65776ddbfd1d16a2f36f5c4e0792787264736f6c634300081900334d656d65546f6b656e2063726561746564207769746820616464726573733a202573a264697066735822122041887eae5bdf7b33cd25fd342a5266c675c144b0d569e48902e7e6736c1fd50e64736f6c63430008190033",
  "linkReferences": {},
  "deployedLinkReferences": {}
}