{
  "_format": "hh-sol-artifact-1",
  "contractName": "NativeLiquidityPool",
  "sourceName": "contracts/NativeLiquidityPool.sol",
  "abi": [
    {
      "anonymous": false,
      "inputs": [
        {
          "indexed": true,
          "internalType": "address",
          "name": "tokenAddress",
          "type": "address"
        },
        {
          "indexed": true,
          "internalType": "address",
          "name": "provider",
          "type": "address"
        },
        {
          "indexed": false,
          "internalType": "uint256",
          "name": "tokenAmount",
          "type": "uint256"
        },
        {
          "indexed": false,
          "internalType": "uint256",
          "name": "avaxAmount",
          "type": "uint256"
        }
      ],
      "name": "LiquidityAdded",
      "type": "event"
    },
    {
      "anonymous": false,
      "inputs": [
        {
          "indexed": true,
          "internalType": "address",
          "name": "tokenAddress",
          "type": "address"
        },
        {
          "indexed": true,
          "internalType": "address",
          "name": "recipient",
          "type": "address"
        },
        {
          "indexed": false,
          "internalType": "uint256",
          "name": "amount",
          "type": "uint256"
        }
      ],
      "name": "RewardMinted",
      "type": "event"
    },
    {
      "inputs": [
        {
          "internalType": "address",
          "name": "tokenAddress",
          "type": "address"
        },
        {
          "internalType": "uint256",
          "name": "tokenAmount",
          "type": "uint256"
        }
      ],
      "name": "addLiquidity",
      "outputs": [],
      "stateMutability": "payable",
      "type": "function"
    },
    {
      "inputs": [
        {
          "internalType": "address",
          "name": "",
          "type": "address"
        },
        {
          "internalType": "address",
          "name": "",
          "type": "address"
        }
      ],
      "name": "isLiquidityProvider",
      "outputs": [
        {
          "internalType": "bool",
          "name": "",
          "type": "bool"
        }
      ],
      "stateMutability": "view",
      "type": "function"
    },
    {
      "inputs": [
        {
          "internalType": "address",
          "name": "tokenAddress",
          "type": "address"
        },
        {
          "internalType": "address",
          "name": "recipient",
          "type": "address"
        },
        {
          "internalType": "uint256",
          "name": "amount",
          "type": "uint256"
        }
      ],
      "name": "mintReward",
      "outputs": [],
      "stateMutability": "nonpayable",
      "type": "function"
    },
    {
      "inputs": [],
      "name": "nativeMinter",
      "outputs": [
        {
          "internalType": "contract INativeMinter",
          "name": "",
          "type": "address"
        }
      ],
      "stateMutability": "view",
      "type": "function"
    }
  ],
  "bytecode": "0x6080604052348015600f57600080fd5b50610a898061001f6000396000f3fe60806040526004361061003f5760003560e01c8063035eedaf14610044578063174eaef71461008157806343c60544146100ac57806356688700146100d5575b600080fd5b34801561005057600080fd5b5061006b60048036038101906100669190610598565b6100f1565b60405161007891906105f3565b60405180910390f35b34801561008d57600080fd5b50610096610120565b6040516100a3919061066d565b60405180910390f35b3480156100b857600080fd5b506100d360048036038101906100ce91906106be565b610138565b005b6100ef60048036038101906100ea9190610711565b6102eb565b005b60006020528160005260406000206020528060005260406000206000915091509054906101000a900460ff1681565b73020000000000000000000000000000000000000181565b6000808473ffffffffffffffffffffffffffffffffffffffff1673ffffffffffffffffffffffffffffffffffffffff16815260200190815260200160002060003373ffffffffffffffffffffffffffffffffffffffff1673ffffffffffffffffffffffffffffffffffffffff16815260200190815260200160002060009054906101000a900460ff16610200576040517f08c379a00000000000000000000000000000000000000000000000000000000081526004016101f7906107d4565b60405180910390fd5b73020000000000000000000000000000000000000173ffffffffffffffffffffffffffffffffffffffff16634f5aaaba83836040518363ffffffff1660e01b815260040161024f929190610812565b600060405180830381600087803b15801561026957600080fd5b505af115801561027d573d6000803e3d6000fd5b505050508173ffffffffffffffffffffffffffffffffffffffff168373ffffffffffffffffffffffffffffffffffffffff167fd547e92a29a1ec35058d0ed0f7248d023db327a01edd8d50110f78d3d79ab7d8836040516102de919061083b565b60405180910390a3505050565b6000341161032e576040517f08c379a0000000000000000000000000000000000000000000000000000000008152600401610325906108a2565b60405180910390fd5b60008111610371576040517f08c379a00000000000000000000000000000000000000000000000000000000081526004016103689061090e565b60405180910390fd5b60008290508073ffffffffffffffffffffffffffffffffffffffff166323b872dd3330856040518463ffffffff1660e01b81526004016103b39392919061092e565b6020604051808303816000875af11580156103d2573d6000803e3d6000fd5b505050506040513d601f19601f820116820180604052508101906103f69190610991565b610435576040517f08c379a000000000000000000000000000000000000000000000000000000000815260040161042c90610a0a565b60405180910390fd5b60016000808573ffffffffffffffffffffffffffffffffffffffff1673ffffffffffffffffffffffffffffffffffffffff16815260200190815260200160002060003373ffffffffffffffffffffffffffffffffffffffff1673ffffffffffffffffffffffffffffffffffffffff16815260200190815260200160002060006101000a81548160ff0219169083151502179055503373ffffffffffffffffffffffffffffffffffffffff168373ffffffffffffffffffffffffffffffffffffffff167f36f3b2e1a21c19137dd82ec243b0708a1d26b3d1fa1dc49c44c4c366a58781388434604051610528929190610a2a565b60405180910390a3505050565b600080fd5b600073ffffffffffffffffffffffffffffffffffffffff82169050919050565b60006105658261053a565b9050919050565b6105758161055a565b811461058057600080fd5b50565b6000813590506105928161056c565b92915050565b600080604083850312156105af576105ae610535565b5b60006105bd85828601610583565b92505060206105ce85828601610583565b9150509250929050565b60008115159050919050565b6105ed816105d8565b82525050565b600060208201905061060860008301846105e4565b92915050565b6000819050919050565b600061063361062e6106298461053a565b61060e565b61053a565b9050919050565b600061064582610618565b9050919050565b60006106578261063a565b9050919050565b6106678161064c565b82525050565b6000602082019050610682600083018461065e565b92915050565b6000819050919050565b61069b81610688565b81146106a657600080fd5b50565b6000813590506106b881610692565b92915050565b6000806000606084860312156106d7576106d6610535565b5b60006106e586828701610583565b93505060206106f686828701610583565b9250506040610707868287016106a9565b9150509250925092565b6000806040838503121561072857610727610535565b5b600061073685828601610583565b9250506020610747858286016106a9565b9150509250929050565b600082825260208201905092915050565b7f4f6e6c79206c69717569646974792070726f7669646572732063616e206d696e60008201527f7420726577617264730000000000000000000000000000000000000000000000602082015250565b60006107be602983610751565b91506107c982610762565b604082019050919050565b600060208201905081810360008301526107ed816107b1565b9050919050565b6107fd8161055a565b82525050565b61080c81610688565b82525050565b600060408201905061082760008301856107f4565b6108346020830184610803565b9392505050565b60006020820190506108506000830184610803565b92915050565b7f4d7573742070726f766964652041564158000000000000000000000000000000600082015250565b600061088c601183610751565b915061089782610856565b602082019050919050565b600060208201905081810360008301526108bb8161087f565b9050919050565b7f4d7573742070726f7669646520746f6b656e7300000000000000000000000000600082015250565b60006108f8601383610751565b9150610903826108c2565b602082019050919050565b60006020820190508181036000830152610927816108eb565b9050919050565b600060608201905061094360008301866107f4565b61095060208301856107f4565b61095d6040830184610803565b949350505050565b61096e816105d8565b811461097957600080fd5b50565b60008151905061098b81610965565b92915050565b6000602082840312156109a7576109a6610535565b5b60006109b58482850161097c565b91505092915050565b7f5472616e73666572206661696c65640000000000000000000000000000000000600082015250565b60006109f4600f83610751565b91506109ff826109be565b602082019050919050565b60006020820190508181036000830152610a23816109e7565b9050919050565b6000604082019050610a3f6000830185610803565b610a4c6020830184610803565b939250505056fea26469706673582212205a34d83994a6313b6d9949758ab6912e9b4db6baa71616ed64aa552f24e8652264736f6c63430008190033",
  "linkReferences": {},
  "deployedLinkReferences": {}
}